:020000040000fa
:080000000002040000000000f2
:020000040000fa
:04000800a80200004a
:020000040000fa
:04000c00a802000046
:020000040000fa
:04001000a802000042
:020000040000fa
:04001400a80200003e
:020000040000fa
:04001800a80200003a
:020000040000fa
:04001c00a802000036
:020000040000fa
:04002000a802000032
:020000040000fa
:04002400a80200002e
:020000040000fa
:04002800a803000029
:020000040000fa
:04002c00f6050000d5
:020000040000fa
:04003000a802000022
:020000040000fa
:040034005c05000067
:020000040000fa
:04003800a80200001a
:020000040000fa
:04003c004206000078
:020000040000fa
:04004000a802000012
:020000040000fa
:04004400a80200000e
:020000040000fa
:04004800ae05000001
:020000040000fa
:04004c00a802000006
:020000040000fa
:04005000a802000002
:020000040000fa
:0400540004030000a1
:020000040000fa
:04005800a8020000fa
:020000040000fa
:04005c00a8020000f6
:020000040000fa
:04006000a8020000f2
:020000040000fa
:04006400a8020000ee
:020000040000fa
:04006800a8020000ea
:020000040000fa
:04006c00a8020000e6
:020000040000fa
:04007000a8020000e2
:020000040000fa
:040074006a06000018
:020000040000fa
:04007800bc030000c5
:020000040000fa
:04007c00a8020000d6
:020000040000fa
:04008000a8020000d2
:020000040000fa
:04008400a8020000ce
:020000040000fa
:04008800a8020000ca
:020000040000fa
:04008c00a8020000c6
:020000040000fa
:04009000a8020000c2
:020000040000fa
:04009400a8020000be
:020000040000fa
:04009800a8020000ba
:020000040000fa
:04009c00a8020000b6
:020000040000fa
:0400a000a8020000b2
:020000040000fa
:0400a400a8020000ae
:020000040000fa
:0400a800a8020000aa
:020000040000fa
:0400ac00a8020000a6
:020000040000fa
:0400b000a8020000a2
:020000040000fa
:0400b400a80200009e
:020000040000fa
:0400b800a80200009a
:020000040000fa
:0400bc00a802000096
:020000040000fa
:0400c000a802000092
:020000040000fa
:0400c400a80200008e
:020000040000fa
:0400c800a80200008a
:020000040000fa
:0400cc00a802000086
:020000040000fa
:0400d000a802000082
:020000040000fa
:0400d400a80200007e
:020000040000fa
:0400d800a80200007a
:020000040000fa
:0400dc00a802000076
:020000040000fa
:0400e000a802000072
:020000040000fa
:0400e400a80200006e
:020000040000fa
:0400e800a80200006a
:020000040000fa
:0400ec00a802000066
:020000040000fa
:0400f000a802000062
:020000040000fa
:0400f400a80200005e
:020000040000fa
:0400f800a80200005a
:020000040000fa
:0400fc00a802000056
:020000040000fa
:04010000a802000051
:020000040000fa
:04010400a80200004d
:020000040000fa
:04010800a802000049
:020000040000fa
:04010c00a802000045
:020000040000fa
:04011000a802000041
:020000040000fa
:04011400a80200003d
:020000040000fa
:04011800a802000039
:020000040000fa
:04011c00a802000035
:020000040000fa
:04012000a802000031
:020000040000fa
:04012400a80200002d
:020000040000fa
:04012800a802000029
:020000040000fa
:04012c00a802000025
:020000040000fa
:04013000a802000021
:020000040000fa
:04013400a80200001d
:020000040000fa
:04013800a802000019
:020000040000fa
:04013c00a802000015
:020000040000fa
:04014000a802000011
:020000040000fa
:04014400a80200000d
:020000040000fa
:04020800a802000048
:020000040000fa
:04020c00a802000044
:020000040000fa
:04021000a802000040
:020000040000fa
:04021400a80200003c
:020000040000fa
:04021800a802000038
:020000040000fa
:04021c00a802000034
:020000040000fa
:04022000a802000030
:020000040000fa
:04022400a80200002c
:020000040000fa
:04022800a802000028
:020000040000fa
:04022c00a802000024
:020000040000fa
:04023000a802000020
:020000040000fa
:04023400a80200001c
:020000040000fa
:04023800a802000018
:020000040000fa
:04023c00a802000014
:020000040000fa
:04024000a802000010
:020000040000fa
:04024400a80200000c
:020000040000fa
:04024800a802000008
:020000040000fa
:04024c00a802000004
:020000040000fa
:04025000a802000000
:020000040000fa
:04025400a8020000fc
:020000040000fa
:04025800a8020000f8
:020000040000fa
:04025c00a8020000f4
:020000040000fa
:04026000a8020000f0
:020000040000fa
:04026400a8020000ec
:020000040000fa
:04026800a8020000e8
:020000040000fa
:04026c00a8020000e4
:020000040000fa
:04027000a8020000e0
:020000040000fa
:04027400a8020000dc
:020000040000fa
:04027800a8020000d8
:020000040000fa
:04027c00a8020000d4
:020000040000fa
:04028000a8020000d0
:020000040000fa
:04028400a8020000cc
:020000040000fa
:04028800a8020000c8
:020000040000fa
:04028c00a8020000c4
:020000040000fa
:04029000a8020000c0
:020000040000fa
:04029400a8020000bc
:020000040000fa
:04029800a8020000b8
:020000040000fa
:04029c00a8020000b4
:020000040000fa
:0402a000a8020000b0
:020000040000fa
:0402a400a8020000ac
:020000040000fa
:0402a800a8020000a8
:020000040000fa
:0402ac00a8020000a4
:020000040000fa
:0402b000a8020000a0
:020000040000fa
:0402b400a80200009c
:020000040000fa
:0402b800a802000098
:020000040000fa
:0402bc00a802000094
:020000040000fa
:0402c000a802000090
:020000040000fa
:0402c400a80200008c
:020000040000fa
:0402c800a802000088
:020000040000fa
:0402cc00a802000084
:020000040000fa
:0402d000a802000080
:020000040000fa
:0402d400a80200007c
:020000040000fa
:0402d800a802000078
:020000040000fa
:0402dc00a802000074
:020000040000fa
:0402e000a802000070
:020000040000fa
:0402e400a80200006c
:020000040000fa
:0402e800a802000068
:020000040000fa
:0402ec00a802000064
:020000040000fa
:0402f000a802000060
:020000040000fa
:0402f400a80200005c
:020000040000fa
:0402f800a802000058
:020000040000fa
:0402fc00a802000054
:020000040000fa
:04030000a80200004f
:020000040000fa
:04030400a80200004b
:020000040000fa
:04030800a802000047
:020000040000fa
:04030c00a802000043
:020000040000fa
:04031000a80200003f
:020000040000fa
:04031400a80200003b
:020000040000fa
:04031800a802000037
:020000040000fa
:04031c00a802000033
:020000040000fa
:04032000a80200002f
:020000040000fa
:04032400a80200002b
:020000040000fa
:04032800a802000027
:020000040000fa
:04032c00a802000023
:020000040000fa
:04033000a80200001f
:020000040000fa
:04033400a80200001b
:020000040000fa
:04033800a802000017
:020000040000fa
:04033c00a802000013
:020000040000fa
:04034000a80200000f
:020000040000fa
:04034400a80200000b
:020000040000fa
:100400004fa720000eff27000e018800000000000b
:10041000000020000000e000020032000001200087
:10042000200288000c000700c06b200001002000a3
:1004300011000700000020000000e0000200320070
:100440000000020000000000a606020000000000fc
:100450000040da000000fe004440a9000000200037
:100460000000e0000300320000002000a00188002e
:100470004440a80000000600910188008000780038
:100480000000eb0015003700e280400032a0b4000d
:100490009101ba00e280400032a0b4009102ba009b
:1004a000e280400032a0b4000002eb00472bde00e7
:1004b000f507b200602ce10004003a000059eb009f
:1004c0008301e900fdff3e00040037006128e100e0
:1004d000010032000082eb000b00070011c3ba00dc
:1004e0001101ba000604e00003003a000200e00037
:1004f000e5ff3a0000000600f607b200960188000a
:1005000082007800f5ff37003159ba008301e90015
:100510000c0032002159ba008301e90008003200c2
:100520000400e00003003a00e280400032a0b40082
:10053000f5ff370011d9ba008301e900faff3a004c
:100540008100e800e180400032a0b4000000060015
:080550000040da000000fe008b
:020000040000fa
:100558000000fa000080eb00f0168800de62a900b7
:100568002062a90070002000401188009560a80052
:1005780022e2a90022c2a90021e2a8002342a80081
:100588000080fa00000006000200fa00000f780060
:100598001e00780020118800000000001111800062
:1005a80000102000008060000000e000fbff320027
:1005b8000080fa00000006000400fa001007980006
:1005c8000040eb00004f78000040eb001047980017
:1005d8001e0090004880de00004f78001e00fb00df
:1005e800e9ff07001e009000104798001e40900089
:1005f8000000fb00e4ff07000080fa00000006008e
:10060800809fbe003400f80000002000a001880090
:100618000200fa000000eb00000f78002040800084
:100628000000e00006003a00204080000000e800da
:100638002040880030118000404088000c003700be
:1006480040408000c800dd003011800001007000cb
:10065800404088000428ef009660a80040408000d1
:10066800e04088000628ef00dc82a900dca2a80090
:100678008560a9000080fa003400f9004f00be0030
:10068800004006000000fa0040a7a9006002200010
:10069800303a8800203a80000060a1000070a10074
:1006a800203a8800213a800000fe2f000080600078
:1006b800203a88004827ef00120020008007200019
:1006c800a10920003374200080497800814978000e
:1006d8008249780012002000600420007105200083
:1006e8002374200080497800814978008249780085
:1006f80000000000113a80000000270080806000a0
:1007080000002100808f5000faff3a00000000002e
:10071800113a800000022000008060000000e00024
:10072800fbff32000080fa00000006000000fa001b
:10073800d902a8008200a9008400a9009400a8009a
:100748000080fa00000006003400f800881f7800d6
:1007580008002000a80188004f0478000000fa0073
:100768008400a9000080fa003400f9000040060067
:100778003400f800881f780008002000a8018800cd
:100788004f0478000000fa008680a9000080fa0073
:100798003400f900004006000000fa00c662a80014
:1007a8002c63a9004119800000fe2f000080600022
:1007b8003000b300401988001019800000d0a10053
:1007c80000e0a10000f0a1001019880020c0b300cb
:1007d80024e3b7002143a800001980000080a1008d
:1007e8000090a10000198800001980000050a000a6
:1007f8000060a0000070a000001988002119800086
:1008080000f0210001007000201988002043a80092
:1008180021e3a8000080fa00000006000000fa00aa
:100828003116800000032000010070003016880097
:10083800e421ef00000f80000080a1000090a100db
:1008480000a0a100000f8800e1e1a900e0e1a800f4
:10085800e0c1a800e041a900e301a800e141a80027
:10086800e121a800e101a8000080fa0000000600cc
:100878000000fa00d8a2a900d882a900000e8000c2
:100888000040a1000050a1000060a1000070a1007c
:10089800000e8800c941a800c8c1a800c841a80026
:1008a800000e80000000a1000010a100000e8800ca
:1008b800000e80000020a1000030a100000e88007a
:1008c80080a92300200e8800c221ef00c1e1a80002
:1008d8000080fa00000006000000fa000421ef0082
:1008e8000021ef008460a9002005800000c0a1005d
:1008f80000d0a10000e0a0002005880020088000aa
:100908000040a1000050a000200888001027200007
:100918001008880005e1a8000080fa000000060021
:100928000200fa00000f780081408000e04080005b
:10093800808f500015003c0071408000b0122000ec
:10094800808f50000d003c00704080009e007800b1
:1009580000014000e081200000004100010878000b
:10096800704080000000e8007040880080408000ef
:100978000000e80080408800040037000e28ef00df
:10098800a04080000000e800a04088000080fa0035
:10099800000006000000fa00a1408000b04080007e
:1009a800808f50000d003a00714080006040800048
:1009b800808f5000090034006040800080004000b3
:1009c800e08120000080400010007800fafe070057
:1009d800604080000000e80060408800a14080007e
:1009e800b040800000805000e10f50000e003a0037
:1009f8006140800070408000808f50001a003400f1
:100a08006040800080004000e081200000804000bd
:100a180010007800e8fe0700604080000000e80051
:100a28006040880010003700411780000000220055
:100a38000080600000f0a7000000ea000000e90064
:100a48004f00de00004078000080fb00610060007d
:100a58004d00dd0042178000f1ff2d00810061008c
:100a6800010070004017880061408000b01220002b
:100a7800808f5000040034000c28ef00b040800044
:100a88000000e800b040880081408000e04080001d
:100a9800808f500004003500dc82a900dca2a90088
:100aa8009660a9001028ef000080fa0000000600f8
:100ab8003600f800809fbe00829fbe00849fbe0063
:100ac800869fbe003400f80000002000a0018800c6
:100ad8000000fa00004080000000e80000408800a4
:100ae800004080008eff07008460a9000080fa00a3
:100af8003400f9004f03be004f02be004f01be0094
:100b08004f00be003600f900004006000000fa0061
:100b18001221ef000a21ef008500a900400580009e
:100b28000000a0000010a0000020a10040058800df
:100b3800900880000040a1000050a00090088800a4
:100b480080bb20007008880013e1a8000080fa002c
:100b5800000006003400f800881f78000800200014
:100b6800a80188004f0478000000fa008500a90059
:100b78000080fa003400f900004006000000fa0086
:100b8800d302a800100a80000000a1000010a100f4
:100b98000020a100100a880042e1a900100a800084
:100ba8000050a1000060a100100a88002005800004
:100bb8000040a0000050a1000060a10020058800ae
:100bc8008420a9009420a800100a80000000a0003a
:100bd8000010a1000020a100100a88000080fa007f
:100be80000000600801f78003400f8000000200094
:100bf800a00188000000fa00000a8000c0408800b8
:100c08008420a9000080fa003400f9004f00780021
:100c1800004006000000fa00d322a800300a800035
:100c28000000a1000010a1000020a100300a8800e7
:100c380046e1a900300a80000050a1000060a10030
:100c4800300a8800300580000040a0000050a10054
:100c58000060a1003005880084a0a90094a0a80025
:100c6800300a80000000a0000010a1000020a100b0
:100c7800300a88000080fa0000000600801f780013
:100c88003400f80000002000a00188000000fa00ed
:100c9800200a8000d040880084a0a9000080fa00c3
:100ca8003400f9004f007800004006000000fa0008
:100cb800d2c2a900d2a2a90061c0a80061e0a80020
:100cc8008660a9000080fa00000006003600f800df
:100cd800809fbe00829fbe00849fbe00869fbe008c
:100ce8003400f80000002000a00188000000fa008d
:100cf800304080000000e80030408800000000001c
:100d080000198000610060000000e000fcff320074
:100d18000018800002ff07003040800000ff070035
:100d28008660a9000080fa003400f9004f03be0075
:100d38004f02be004f01be004f00be003600f90052
:100d4800004006000000fa000080eb0060198800ef
:100d5800fffd070090fe0700d4ff0700d8a2a900f6
:100d6800d882a900e5a2a9000aff0700feff370004
:020000040000fa
:100d78001e08000056020000000000001c080000c9
:100d880002000000020000002b0100000008000023
:0c0d98001c00000000000000d2068000db
:020000040000fa
:040da400000000004b
:020000040000fa
:0200000401f009
:04000000ffff0000fe
:020000040000fa
:0200000401f009
:04000400ffff0000fa
:020000040000fa
:0200000401f009
:04000800ffff0000f6
:020000040000fa
:0200000401f009
:04000c00faff0000f7
:020000040000fa
:0200000401f009
:04001000beff00002f
:020000040000fa
:0200000401f009
:040014007fff00006a
:020000040000fa
:0200000401f009
:04001800ffff0000e6
:020000040000fa
:0200000401f009
:04001c00fdff0000e4
:00000001FF
