:020000040000fa
:080000000001040000000000f3
:020000040000fa
:04000800ac01000047
:020000040000fa
:04000c00ac01000043
:020000040000fa
:04001000ac0100003f
:020000040000fa
:04001400ac0100003b
:020000040000fa
:04001800ac01000037
:020000040000fa
:04001c00ac01000033
:020000040000fa
:04002000ac0100002f
:020000040000fa
:04002400ac0100002b
:020000040000fa
:04002800c20e000004
:020000040000fa
:04002c00ac01000023
:020000040000fa
:04003000ac0100001f
:020000040000fa
:04003400ac0100001b
:020000040000fa
:04003800ac01000017
:020000040000fa
:04003c00ac01000013
:020000040000fa
:04004000ac0100000f
:020000040000fa
:04004400ac0100000b
:020000040000fa
:04004800ac01000007
:020000040000fa
:04004c003a0e000068
:020000040000fa
:04005000ac010000ff
:020000040000fa
:04005400680f000031
:020000040000fa
:04005800ac010000f7
:020000040000fa
:04005c00ac010000f3
:020000040000fa
:04006000ac010000ef
:020000040000fa
:04006400ac010000eb
:020000040000fa
:04006800ac010000e7
:020000040000fa
:04006c00ac010000e3
:020000040000fa
:04007000ac010000df
:020000040000fa
:04007400ac010000db
:020000040000fa
:04007800ac010000d7
:020000040000fa
:04007c00ac010000d3
:020000040000fa
:04008000ac010000cf
:020000040000fa
:04008400ac010000cb
:020000040000fa
:04008800ac010000c7
:020000040000fa
:04008c00ac010000c3
:020000040000fa
:04009000ac010000bf
:020000040000fa
:04009400ac010000bb
:020000040000fa
:04009800ac010000b7
:020000040000fa
:04009c00ac010000b3
:020000040000fa
:0400a000ac010000af
:020000040000fa
:0400a400ac010000ab
:020000040000fa
:0400a800ac010000a7
:020000040000fa
:0400ac00ac010000a3
:020000040000fa
:0400b000ac0100009f
:020000040000fa
:0400b400ac0100009b
:020000040000fa
:0400b800ac01000097
:020000040000fa
:0400bc00ac01000093
:020000040000fa
:0400c000ac0100008f
:020000040000fa
:0400c400ac0100008b
:020000040000fa
:0400c800ac01000087
:020000040000fa
:0400cc00ac01000083
:020000040000fa
:0400d000ac0100007f
:020000040000fa
:0400d400ac0100007b
:020000040000fa
:0400d800ac01000077
:020000040000fa
:04010800ac01000046
:020000040000fa
:04010c00ac01000042
:020000040000fa
:04011000ac0100003e
:020000040000fa
:04011400ac0100003a
:020000040000fa
:04011800ac01000036
:020000040000fa
:04011c00ac01000032
:020000040000fa
:04012000ac0100002e
:020000040000fa
:04012400ac0100002a
:020000040000fa
:04012800ac01000026
:020000040000fa
:04012c00ac01000022
:020000040000fa
:04013000ac0100001e
:020000040000fa
:04013400ac0100001a
:020000040000fa
:04013800ac01000016
:020000040000fa
:04013c00ac01000012
:020000040000fa
:04014000ac0100000e
:020000040000fa
:04014400ac0100000a
:020000040000fa
:04014800ac01000006
:020000040000fa
:04014c00ac01000002
:020000040000fa
:04015000ac010000fe
:020000040000fa
:04015400ac010000fa
:020000040000fa
:04015800ac010000f6
:020000040000fa
:04015c00ac010000f2
:020000040000fa
:04016000ac010000ee
:020000040000fa
:04016400ac010000ea
:020000040000fa
:04016800ac010000e6
:020000040000fa
:04016c00ac010000e2
:020000040000fa
:04017000ac010000de
:020000040000fa
:04017400ac010000da
:020000040000fa
:04017800ac010000d6
:020000040000fa
:04017c00ac010000d2
:020000040000fa
:04018000ac010000ce
:020000040000fa
:04018400ac010000ca
:020000040000fa
:04018800ac010000c6
:020000040000fa
:04018c00ac010000c2
:020000040000fa
:04019000ac010000be
:020000040000fa
:04019400ac010000ba
:020000040000fa
:04019800ac010000b6
:020000040000fa
:04019c00ac010000b2
:020000040000fa
:0401a000ac010000ae
:020000040000fa
:0401a400ac010000aa
:020000040000fa
:0401a800ac010000a6
:020000040000fa
:0401ac00ac010000a2
:020000040000fa
:0401b000ac0100009e
:020000040000fa
:0401b400ac0100009a
:020000040000fa
:0401b800ac01000096
:020000040000fa
:0401bc00ac01000092
:020000040000fa
:0401c000ac0100008e
:020000040000fa
:0401c400ac0100008a
:020000040000fa
:0401c800ac01000086
:020000040000fa
:0401cc00ac01000082
:020000040000fa
:0401d000ac0100007e
:020000040000fa
:0401d400ac0100007a
:020000040000fa
:0401d800ac01000076
:020000040000fa
:100200000f8620000ebf20000e01880000000000b5
:10021000000020000000e000020032000001200089
:10022000200288000c000700e005210001002000ea
:1002300011000700000020000000e0000200320072
:100240000000020000000000461002000000000054
:100250000040da000000fe004440a90040002000f9
:100260000000e0000300320000002000a001880030
:100270004440a8000000060091018800800078003a
:100280000000eb0015003700e280400032a0b4000f
:100290009101ba00e280400032a0b4009102ba009d
:1002a000e280400032a0b4000002eb00472bde00e9
:1002b000f507b200602ce10004003a000059eb00a1
:1002c0008301e900fdff3e00040037006128e100e2
:1002d000010032000082eb000b00070011c3ba00de
:1002e0001101ba000604e00003003a000200e00039
:1002f000e5ff3a0000000600f607b200960188000c
:1003000082007800f5ff37003159ba008301e90017
:100310000c0032002159ba008301e90008003200c4
:100320000400e00003003a00e280400032a0b40084
:10033000f5ff370011d9ba008301e900faff3a004e
:100340008100e800e180400032a0b4000000060017
:1003500000000000000000000040da000000fe0085
:10036000889fbe008a9fbe0030044200b0844a00cd
:1003700030054b0090854b006000b1000898be002e
:100380000a90be000440e10005c8e10006d0e1008b
:1003900007d8e10002003100680040001008e800c2
:1003a0004f05be004f04be0000000600889fbe003f
:1003b0008a9fbe003004be002005be000418540011
:1003c00005985c0006185d0007985d00110020008c
:1003d0000440e10005c8e10006d0e10007d8e100d3
:1003e000010039008000eb00108810004f05be00ae
:1003f0004f04be00000006001200fa00889fbe00f5
:100400008a9fbe008c9fbe00e0b79f00f1b79f009f
:1004100082bf9f0093bf9f000605be000404be007c
:100420000000eb00d0b79f00c0b79f00b0b79f009f
:10043000a0b79f0090b79f000006eb005fb1970048
:10044000cfb09700820141003fb097000200e0006a
:1004500004003d00370007007e805700c0ff070002
:1004600003003700330007007e805700cfff0700ee
:10047000dfb697000d00e0000c0035006fb297006a
:10048000ffb297000fbb97009fbb970010002000a2
:10049000010020006011b800000272008182720029
:1004a00002037300838373001b0007000c06e8003f
:1004b00001042000810f5600e0ff3a000d00e0002b
:1004c00004003d000802be000a03be007e80570003
:1004d000a3ff07005fa897000000e00005003a00b6
:1004e0001fb29700afb297003fb39700cfb397000a
:1004f000090007006fb09700ffb097000fb9970091
:100500009fb997004f06be004f05be004f04be00c6
:100510000080fa000000060001000700000006004d
:10052000a4b79f00b5b79f00c6b79f00d7b79f007d
:10053000000006004f09de0082817100b3b79f0002
:100540004f01de008180400082807000a1b79f00d3
:100550008fb097004f09de000000400002007000dd
:1005600090b79f007fa897004f01de008180400078
:100570008280700081b79f000d0007004f3ade00b7
:100580000000400004007000f0af9f00080007006a
:100590000402420085824a0006034b0087834b0019
:1005a000dfff07000802be000a03be0000000600cd
:1005b0002fb29700bfb297004fb39700dfb39700f9
:1005c00000000600881f780018002000881f7800af
:1005d00089ff07008f87e9004f04780000000600bc
:1005e000801feb0084ff07008f87e90000000600f2
:1005f000889fbe008a9fbe00e00f5000e08f580029
:10060000e00f5900e08f59000c003d006044b80035
:100610006055b8000000540081805c0002015d005c
:1006200083815d00180020001500070008003d00d0
:10063000180007000004eb00050037000004eb0081
:100640000f00070002003d00120007001800200004
:10065000dcff07000800e000060032006022b8005e
:100660006033b8000000520081805a0002015b0034
:1006700083815b004f05be004f04be0000000600f2
:10068000e00f5200e08f5a00e00f5b00e08f5b004c
:10069000000006006044b8006055b8000402540031
:1006a00085825c0006035d0087835d000000060014
:1006b000889fbe008a9fbe008c1f7800e00f50000c
:1006c000e08f5800e00f5900e08f59000d003d0009
:1006d0006044b8006055b8000000540081805c00a0
:1006e00002015d0083815d001c0020000820e10004
:1006f00009a8e1000ab0e1000bb8e1000d003d00df
:10070000080037000006eb00e00f5200e08f5a00af
:10071000e00f5b00e08f5b0006003d006044b80026
:100720006055b8000402540085825c0006035d0039
:1007300087835d00aaff07000c00e000060032007e
:100740006022b8006033b8000000520081805a0077
:1007500002015b0083815b004f0678004f05be00fd
:100760004f04be0000000600889fbe008a9fbe00a6
:100770008c1f78000006eb00e00f5000e08f58005f
:10078000e00f5900e08f590007003d006044b800b9
:100790006055b8000000540081805c0002015d00db
:1007a00083815d001c002000e00f5200e08f5a00a2
:1007b000e00f5b00e08f5b0007003d006044b80085
:1007c0006055b8000402540085825c0006035d0099
:1007d00087835d000c00a2000c0007000c00e00005
:1007e000060032006022b8006033b80000005200fa
:1007f00081805a0002015b0083815b004f06780014
:100800004f05be004f04be0000000600889fbe00da
:100810008a9fbe008c9fbe000404b8000506b80085
:100820008904460060854e000606b8000a054600a9
:10083000e0854e000706b8008b054600040eb800a0
:10084000890446000a854e00e0854d00050eb8007b
:100850000a0546008b854e00060eb8008b05460043
:100860000416b8000a0546008b854e000516b80030
:100870008b054600041eb8008b0546000800be002c
:100880000a01be004f06be004f05be004f04be0069
:1008900000000600881f7800020478000801780034
:1008a000cc010700080040004f047800000006005b
:1008b0000000fa00881f780000047800ea815700e1
:1008c0003fb9970088007800a04420000700070087
:1008d0000000e000020035008040eb000174780069
:1008e0004f0478000080fa00000006006200fa0061
:1008f000889fbe008a1f7800000578008104780078
:10090000020478008300780080f92f000f00400077
:10091000ae0307009a979f00a9979f000000eb0085
:10092000b09f9f001885fb008a04fb000a05ea00bf
:100930004f55de0050022000808f54000d00320021
:10094000e10f55000b003a000a017800880078009a
:100950002f9097009f91970003000100a0979f00a0
:100960000000e0008e0032003f9897000000e80091
:10097000b09f9f000a04440050022000808f540062
:10098000040032000900e000e6ff3a003f989700bb
:10099000840037000000eb00909f9f00809f9f0025
:1009a000f0979f00e0979f00d0979f00c0979f000f
:1009b00007003700a1852000010050000000400022
:1009c000e184200061007800df989700010070004a
:1009d000d09f9f008804780009047800384578008b
:1009e0008a00fb00a0852000810107000000e000d4
:1009f000f0ff3a00a1c2b300814f55000e003a004b
:100a0000cf8897000180e900c08f9f001000780018
:100a1000c09f9f000000e00005003d000000ea00cc
:100a2000c09f9f005f9897000020a000d09f9f006c
:100a30000904e8000f003700c09f9f000000eb0092
:100a400005003700f2ff2700820f5000020032003d
:100a50006a01b90002804000090478008804780027
:100a6000b900fb000103b100e98f5000f5ff36002b
:100a7000c09f9f00e0c2b300984f100002003200f8
:100a80000080eb0019003700a0c2b300d84f10005f
:100a900007003a00cf8897000180e900c08f9f00cf
:100aa00010007800a09f9f000804e80010003700a5
:100ab0000000eb00a09f9f00880078000500370031
:100ac000f3ff2700830f5000020032006a02b900d2
:100ad0000400410001047800880078003101fb0027
:100ae0000203b100e90f5100f5ff3600a09f9f00ff
:100af000984478008900fb00608420003c010700d6
:100b00000000e000020032000804e80001003700a5
:100b10008044eb00c97f9f0080c6b30080cf5400a3
:100b200004003a0098cf14000a003a0066405000d2
:100b300006003700c0c6b30080cf540005003a005d
:100b400098cf140003003a0065404000c07f9f002a
:100b50000804e8001801fb00e3fb2f008f8141002f
:100b600081f92f008f804000a0f92f000f00400076
:100b7000100007000000e00009003a00e1fb2f0030
:100b80008f804000a0f92f000f00400053020700a3
:100b90000000e000020035000804e80061ff3700b3
:100ba0000080eb004f0578004f04be000080fa0083
:100bb00000000600881f7800e4c6b300844f51008f
:100bc000b600320010003c006b425200844f5100ce
:100bd0001800320005003c0054c2b300844f51009d
:100be000ee00320084c5b3000f00370044c6b300e6
:100bf000844f51001400320065424200844f51007e
:100c0000e9003a001000370004c7b300844f5100d8
:100c1000d50032005300350065424200844f510038
:100c20005000320063424200844f5100de003a001f
:100c30004c0037001181e90082087800f000900034
:100c400012417800d600370020629000c5c6b3007c
:100c5000854f520007003a009102780064825200ea
:100c6000840878001402be004fabde0086037800d3
:100c70001100370015c7b300854f52000300320042
:100c8000a5c6b300854f520006003a0091027800d5
:100c900068825200840878005403be004402be00fb
:100ca000050037001182e9008408780014027800fa
:100cb000cfa2de00612bb9000498be000690be00f2
:100cc000a060900088c6b30088cf50000d003200ad
:100cd00028c6b30088cf500004003a000402fb008d
:100ce000cfa2de00612bb9000800370048c7b3006f
:100cf00088cf5000030032006644440088cf500083
:100d000004003a00cfa2de00612bb9000498be00b7
:100d10000690be003002be002003be00f00090002e
:100d2000e00f5200e08f5a00e00f5b00e08f5b00a5
:100d300002003d00d4c2b30008003700001290004a
:100d40000418a30002003200b4c2b300030037004d
:100d50000408a3004c00320004c2b30084f1780000
:100d60004700370020629000c5c6b300854f52008f
:100d700006003a00910278006482520084087800ec
:100d80001402be006033b8001100370015c7b3006d
:100d9000854f520003003200a5c6b300854f5200b4
:100da00006003a00910278006882520084087800b8
:100db0005403be004402be00050037001182e90062
:100dc00084087800140278008002eb006033b800d9
:100dd0000498be000690be00a060900088c6b300d4
:100de00088cf50000d00320028c6b30088cf5000d5
:100df00004003a000482fb008002eb006033b8007c
:100e00000800370048c7b30088cf50000300320005
:100e10006644440088cf500004003a008002eb0092
:100e20006033b8000498be000690be0080109000a9
:100e30000138a300140032003002be002003be00bf
:100e4000e00f5200e08f5a00e00f5b00e08f5b0084
:100e50000d00320081c7b300814f51000300320002
:100e600081c5b300814f510007003a00f0009000a7
:100e700004c3b30084f178008100e80082f17800b7
:100e80008100e80071009800f0009000818141002d
:100e900063009800824078003e003700a061900017
:100ea000c4c6b3001181e90084cf51002200320092
:100eb0000a003c006442520084cf510025003200f9
:100ec00004c2e80084cf510013003200684252008f
:100ed00084cf51001e003a000a00370044c7b30017
:100ee00084cf51001b0032006642420084cf510083
:100ef000180032006942520084cf510014003a00b9
:100f00000500370082087800920078004058900071
:100f1000804878002c003700820878009200780022
:100f2000600a9000cfa2de00612bb9008498be0059
:100f30008690be0024003700820878009200780076
:100f400060099000cf91de008288be001e0037004d
:100f50001181e90082087800920078006008900012
:100f600080087800180037001181e90082087800b5
:100f700012027800cfa2de00612bb9000498be00f7
:100f80000690be00f000900081814100630098004f
:100f900081c7b300220007000b003700f00090006b
:100fa00082f1780006003700f00090008181410056
:100fb0000204e00001003a0052c2b3008249780006
:100fc0008100e800710098000000eb004f047800f9
:100fd000000006008001780002003700b159780057
:100fe0000201e9000200e000fcff3a0000000600f8
:100ff000020037000304e000060032000001780020
:1010000002007800b041780081cf5100f9ff3a002a
:10101000010037000001eb0002007800000006002c
:10102000fc874700889fbe008a9fbe008c9fbe0041
:101030008e1f78000006780080c5b30080cf500076
:101040000a0032007740400080cf50000a00320092
:101050006940400080cf50000b00320050832000d8
:1010600080bf9f00ae0020000a00370042822000af
:1010700082bf9f00060037005383200083bf9f007c
:101080008e002000030037005483200084bf9f009f
:101090000e0120003c02be002c03be000605be006f
:1010a0000404be0040c6b30080cf500003003200ed
:1010b0006540400080cf50000b003a00e00f520026
:1010c000e08f5a00e00f5b00e08f5b0006003d0000
:1010d0006000b8006011b800040450008584580016
:1010e0000605590087855900e80f570004003200b3
:1010f00040002000f00f570038003a000100370090
:1011000030002000e00f5400e08f5c00e00f5d0035
:10111000e08f5d0004003a00dc0890008d012000a3
:101120000100e000060032008e00e90088806000c7
:101130008fba9700e5c07800f1ef9f007d01200095
:10114000800078008100e900050033008b05d100a4
:101150000a85d3008984d3000884d300f9ff3700bf
:10116000089ebe000a96be00120037008d06e900f8
:101170008e00e900848060000fb99700e2c178001a
:1011800082fd2f000f01410003f17e0080007800f6
:101190008100e900050033008783d1000683d30076
:1011a0008582d3000482d300f9ff3700049ebe007d
:1011b0000696be003c02be002c03be00e00f5200ab
:1011c000e08f5a00e00f5b00e08f5b008b00340083
:1011d0000d00e000e5ff3c00880037002c60900027
:1011e00081c6b300814f50000b00320006003c0066
:1011f0000004e00008003200e6c05000814f5000bb
:101200004e003a0004003700c1c6b300814f5000c1
:101210004a003a00210037000800e00004003a00cc
:101220005c0890008d0120000000e0000600320004
:10123000110009000e84d8000fb99700e2c07800b1
:10124000f1ef9f007d012000110009000e84d800fd
:101250000a003700110009000e04d8008d06e900cd
:101260000e81b900020454008fb8970061417c00e0
:1012700081fd2f008f80400082f07e000004780006
:101280000800e000020032000d00e000f1ff3c0029
:10129000cfc4de00614db90025003700e00f5400d7
:1012a000e08f5c0004003a005c0890008d01200093
:1012b0000000e000070032006171b9000800be00c4
:1012c000630107008fb99700e3417800f3ef9f00b7
:1012d0007d0120006171b9000800be004c010700cb
:1012e0000b0037006171b9000800be00390107002a
:1012f0008d06e90000f1b900020454000fba97000e
:10130000e4427c0084fd2f000f02420005f27e00c3
:101310000004be00e00f5000e08f580002003200d1
:101320000d00e000efff3c004fcdde008a057800a5
:10133000089ebe000a96be0030003700e00f540041
:10134000e08f5c00e00f5d00e08f5d0004003a007c
:101350005c0890008d0120000000e00009003200d0
:101360006172b900612bb9000800be000a01be001d
:101370009bfc07000fba970064427800f4ef9f00cf
:101380007d0120006172b900612bb9000800be0028
:101390000a01be008bfc07000d0037006172b90026
:1013a000612bb9000800be000a01be0090fc0700d6
:1013b0008d06e90000f2b900040454008fba9700ca
:1013c00065427c0085fd2f008f82420084f27e0002
:1013d000009ebe000296be003c04be002c05be006e
:1013e000e00f5400e08f5c00e00f5d00e08f5d00d7
:1013f000020034000d00e000e8ff3c00e80f570059
:1014000010003a000c1090000038a3000d003200cc
:10141000f78f560006003e0085fd2f008f824200a8
:10142000e5c07e0000c3b30080cf5000050032004d
:101430008d06e90002c3b30081fd2f008f804000bc
:1014400082f07e0078811600120e98006c009000e9
:1014500083fd2f008f8141008d804100ddfe07005c
:101460001c089000dc089000810f500006003d0031
:1014700000805000000e98000c1090000040a10069
:10148000001698000f0037000100e0000d003d003d
:101490008c109000f4806000f08f500009003a003a
:1014a0007c099000fc009000810051000c09900024
:1014b00082805000008050004240a90001003400aa
:1014c000000e98004f0778004f06be004f05be0083
:1014d0004f04be00cf01b100000006000400fa0076
:1014e000889fbe008a9fbe008c1f78000004780091
:1014f00001067800f80d9000780090008085550076
:1015000008089000808555001808900080855500d7
:101510002808900080855500380890008085550087
:1015200048089000808555000002220090bf9f006f
:1015300000032300a0bf9f00081090000028a30014
:1015400015003a000b00e000130034000b05780092
:101550008a047800e20f55000100360029002000bf
:10156000c801900009017800ee80570058009000f3
:1015700003000100500498000000e0008c003200dd
:101580006808900009004000600c980009055500ab
:101590004240a900eeff3c00780190000200e0000c
:1015a0000c003400c80190008c00780058009000b6
:1015b00003000100500498008080eb000000e00070
:1015c0007c003200e8089000780090000080400025
:1015d000600c9800880c90000900e00011003400b5
:1015e00009057800e28f5400010036002a0020002f
:1015f000c80190000a017800ec8057005800900064
:1016000003000100500498000000e0006800320070
:10161000680890000a004000600c98008a8454001a
:10162000edff3700180990000200e0000c003400c4
:10163000c8019000e80090005800900003000100ed
:10164000500498008080eb000000e0005900320058
:10165000e80890001808900000804000600c980096
:10166000a80c90000900e000110034000905780082
:10167000e28f5400010036002a002000c8019000cb
:101680000a017800ec805700580090000300010028
:10169000500498000000e000450032006808900007
:1016a0000a004000600c98008a845400edff370067
:1016b000380990000200e0000e003400e8009000bd
:1016c0001808900080804000c801900058009000e9
:1016d00003000100500498008080eb000000e0004f
:1016e00034003200e8089000380890000080400084
:1016f000600c9800c80c90000900e0001100340054
:1017000009057800e28f5400010036002a0020000d
:10171000c80190000a017800ec8057005800900042
:1017200003000100500498000000e0002000320097
:10173000680890000a004000600c98008a845400f9
:10174000edff3700081090008000eb000028a30098
:10175000180032000b00e000160034008b04780003
:1017600009057800e28f5400010036002a002000ad
:10177000c80190000a017800ee80570058009000e0
:1017800003000100500498000000e000080032004f
:10179000680890000a004000600c98008a84540099
:1017a0004240a900eeff3c008000eb000100370042
:1017b0008080eb00010078004f0678004f05be00e6
:1017c0004f04be000080fa00000006000108780007
:1017d00000000600839f68000100e00002003d0059
:1017e00060001000e08018000300e00002003d00ef
:1017f00060011100e0811900050007004f00e000c2
:1018000002003b0060001000e080180000000600ad
:101810006022b800060220000000d0008180d200c3
:101820000482d2008582d2000000a0000202520091
:1018300083825a00030031000202420083824a0080
:101840000000a1000603e900f3ff3a0000000600d3
:0c185000efff07000400be0000000600cf
:020000040000fa
:08185c002534000064000000c7
:020000040000fa
:101864000000fa00d1c2a800102e200001002000c0
:1018740030020700d1c2a900102e20000100200070
:101884002c0207000080fa00000006000200fa00a3
:10189400004f7800d1a2a900e1168000000f2000bb
:1018a400808060001e80fb004400de000040780061
:1018b4000080fb006f00600001007000e0168800eb
:1018c400e7ff0700e1168000000f20008080600021
:1018d4001e80fb006f00600001007000e0168800ad
:1018e400dfff0700000022001100200011020700a2
:1018f4000080fa00000006000200fa00004f7800a1
:10190400d1a2a800e1168000000f200080806000b2
:101914001e00fb004480de00004078000000fb0055
:101924006f00600001007000e0168800ccff070023
:10193400e1168000000f2000808060001e00fb0084
:101944006f00600001007000e0168800c4ff07000b
:101954000080fa00000006000400fa00004f78003e
:101964001107980020c0b300c8ff07001e4078008c
:10197400c6ff0700060037001e00900010407800e4
:10198400ddff07001e0090000000e800100798002b
:101994001e009000104078000004e000f6ff3a00ba
:1019a4000080fa00000006001400fa0000579800b6
:1019b400110f98009e089000811f7800e0c2280053
:1019c400801f78000e007800b8fb0700e4875700fa
:1019d4008e0078000e509000dfff07000080fa00b0
:1019e400000006000000fa00cdc2a900cda2a900a3
:1019f400d802a900d822a900d842a900d862a90017
:101a0400e0168000dc22ef00d1c2a900d1a2a90017
:101a140000002400b1002000c6010700e116800088
:101a2400000f2000008060003000b300e016880042
:101a34008bff0700c0cc210001002000bd0107007e
:101a4400e1168000000f2000008060003000b30029
:101a5400e016880082ff0700c0cc210001002000ae
:101a6400b4010700e1168000000f20000080600030
:101a74003000b300e016880079ff0700c0cc2100d5
:101a840001002000ab010700e1168000000f2000d8
:101a9400008060000010a000e016880070ff0700be
:101aa400c0cc210001002000a201070080c2b300c5
:101ab40076ff070010c0b30074ff070060c0b300d6
:101ac40072ff0700c0c0b30070ff070020c0b3005e
:101ad4006eff070010c0b3006cff07000080fa001f
:101ae400000006000000fa00411580008003200079
:101af400010070004015880031168000800320002a
:101b040001007000301688002621ef0010098000c3
:101b14000080a1000090a10000a0a100100988008d
:101b240023e1a90022e1a80022c1a8002241a900c2
:101b34002501a8002341a8002321a8002301a8000f
:101b44000080fa00000006000000fa00d8a2a900f4
:101b5400000e80000040a1000050a1000060a10020
:101b64000070a100000e8800c8c1a800000e80000b
:101b74000000a1000010a100000e8800000e8000eb
:101b84000020a0000030a000000e8800f08f20008c
:101b9400200e8800c221ef00c1e1a8000080fa00f5
:101ba400000006000000fa000de2a8000f42a800a1
:101bb400f0022000a01088008d20a8000ee2a800ea
:101bc4000ec2a8000080fa00000006000200fa001d
:101bd400000f78001e0078008010880000000000cc
:101be4007110800000102000008060000000e00000
:101bf400fbff32000080fa00000006000200fa0039
:101c0400000f7800050037001e00780010407800af
:101c14000080fb001e0fe800ecff07001e007800a8
:101c2400104078000004e000f7ff3a000080fa005a
:101c3400000006000400fa00100798000040eb00c2
:101c4400004f78001e009000004f78001e00fb003b
:101c5400deff07001e0090004880de00004f780081
:101c64001e00fb00d9ff07000080fa0000000600f8
:101c74003600f800809fbe00829fbe00849fbe0095
:101c8400869fbe003400f80000002000a0018800f8
:101c94000c00fa008520a900e04080000000e80064
:101ca400e04088000000eb00000f7800a000200056
:101cb4001007980080252000200798004006200087
:101cc40030079800200320004007980010002000ef
:101cd400500798001e28ef002028ef00c0122000b3
:101ce400d040880040002000000f78000c0037002e
:101cf400911080001e00e9004300dd000008dd00b3
:101d04006101b800f04080000141800000007100d2
:101d140081807100f0408800014188001e0fe900b5
:101d24001e0078000000e000f1ff3c00f04080005d
:101d340001418000000078008000780050c8b300a2
:101d440019ff07000080fa003400f9004f03be00b9
:101d54004f02be004f01be004f00be003600f90026
:101d6400004006000000fa008200a900d902a80081
:101d74008400a9008c00a8000080fa00000006007e
:101d84003600f800809fbe00829fbe00849fbe0084
:101d9400869fbe003400f80000002000a0018800e7
:101da4000000fa008400a900501680006100600061
:101db40000f0a7000000ea000000e9004f00de0088
:101dc400004078000080fb00610060005216800033
:101dd400e1ff2f00810061000100700050168800af
:101de400300980008000780050c8b300eefe070080
:101df4000080fa003400f9004f03be004f02be0019
:101e04004f01be004f00be003600f900004006003e
:101e14000000fa00001580000080a1000090a100dd
:101e240000158800001580000050a0000060a0008c
:101e34000070a00000158800a042a80010158000c2
:101e440000d0a00000e0a00000f0a1001015880060
:101e5400a342a800101580000020a1000030a100ba
:101e64000040a1000050a10010158800a222a90082
:101e7400a202a9002115800000f0210001007000d9
:101e840020158800a4e2a9002115800000fc2f0081
:101e9400008060005000b30020158800a862a900eb
:101ea400301580000000a0000010a0000020a10058
:101eb4000030a10030158800aa62a8008560a9003e
:101ec400a1e2a8000080fa00000006003400f80037
:101ed400881f780008002000a80188004f047800bb
:101ee4000000fa008560a9000080fa003400f900bf
:101ef400004006000a00fa00000f7800110798005d
:101f04002207980033079800440798001628ef002a
:101f14001428ef00560037001e007800d00e880009
:101f240000002c0011022000820007002621ef008f
:101f340000002400810320007e000700a0408000f0
:101f44008000780000c8b30097fe07001628ef0051
:101f54001d003700d10e80004e009000008040002c
:101f6400d00e88001e009000cf80de006109b90009
:101f740004002800050720006033b800f9f90700c1
:101f8400843e2000050020006033b8008cf907006f
:101f94000000be00670007003009800025ff07002d
:101fa4000000000000158000610060000000e000f7
:101fb400fcff3200001480001eff0700b0408000c8
:101fc4000000e800b0408800b14080003e0090006e
:101fd400808f5000dfff3500be009000b1408800c4
:101fe4001d003700d10e80004e009000008050008c
:101ff400d00e88001e009000cf80de006109b90079
:1020040004002800050720006033b800d5f9070054
:10201400843e2000050020006033b80068f9070002
:102024000000be00430007003009800001ff0700e4
:102034000000000000158000610060000000e00066
:10204400fcff320000148000fafe0700b04080005c
:102054000000e900b0408800b04080000000e000cb
:10206400e0ff3c00a04080000000e800a0408800a1
:10207400a14080002e009000808f5000a6ff350004
:102084000080fa00000006000000fa00c5fe070008
:1020940054fe070033ff070092fe0700aafe070064
:1020a4005bff0700c602a900c0092000e1fe07008b
:0820b400ca02a800ffff37007b
:020000040000fa
:1020bc00000800002400000000000000460800009a
:1020cc001a00000002000000686a6c00747a4c0070
:1020dc0000000100000200000400080000100000d5
:1020ec00000020002b2d23003000000024080000ed
:1020fc002200000002000000303132003334350081
:10210c003637380039414200434445004600300020
:10211c0031323300343536003738390061626300b0
:0c212c006465660000000000b810800030
:020000040000fa
:10213800f03fb1000180b10006003500ee03090050
:1021480000000000403fb1000180b100fbff3d00ee
:102158001000b000203fb0000200350000800900e8
:08216800000000000000060069
:020000040000fa
:04217000000000006b
:020000040000fa
:0200000401f009
:04000000e5bf000058
:020000040000fa
:0200000401f009
:04000400ff7f00007a
:020000040000fa
:0200000401f009
:040008007fff000076
:020000040000fa
:0200000401f009
:04001400ffff0000ea
:020000040000fa
:0200000401f009
:04001800ffff0000e6
:00000001FF
