:020000040000fa
:080000000002040000000000f2
:020000040000fa
:040008000c070000e1
:020000040000fa
:04000c000c070000dd
:020000040000fa
:040010000c070000d9
:020000040000fa
:040014000c070000d5
:020000040000fa
:040018000c070000d1
:020000040000fa
:04001c000c070000cd
:020000040000fa
:040020000c070000c9
:020000040000fa
:040024000c070000c5
:020000040000fa
:04002800760300005b
:020000040000fa
:04002c000c070000bd
:020000040000fa
:040030000c070000b9
:020000040000fa
:04003400a40500001f
:020000040000fa
:040038000c070000b1
:020000040000fa
:04003c002e0600008c
:020000040000fa
:040040000c070000a9
:020000040000fa
:040044000c070000a5
:020000040000fa
:040048000c070000a1
:020000040000fa
:04004c000c0700009d
:020000040000fa
:040050000c07000099
:020000040000fa
:04005400a8020000fe
:020000040000fa
:040058000c07000091
:020000040000fa
:04005c000c0700008d
:020000040000fa
:040060000c07000089
:020000040000fa
:040064000c07000085
:020000040000fa
:040068000c07000081
:020000040000fa
:04006c000c0700007d
:020000040000fa
:040070000c07000079
:020000040000fa
:04007400460600003c
:020000040000fa
:04007800a6030000db
:020000040000fa
:04007c000c0700006d
:020000040000fa
:040080000c07000069
:020000040000fa
:040084000c07000065
:020000040000fa
:040088000c07000061
:020000040000fa
:04008c000c0700005d
:020000040000fa
:040090000c07000059
:020000040000fa
:040094000c07000055
:020000040000fa
:040098000c07000051
:020000040000fa
:04009c000c0700004d
:020000040000fa
:0400a0000c07000049
:020000040000fa
:0400a4000c07000045
:020000040000fa
:0400a8000c07000041
:020000040000fa
:0400ac000c0700003d
:020000040000fa
:0400b0000c07000039
:020000040000fa
:0400b4000c07000035
:020000040000fa
:0400b8000c07000031
:020000040000fa
:0400bc000c0700002d
:020000040000fa
:0400c0000c07000029
:020000040000fa
:0400c4000c07000025
:020000040000fa
:0400c8000c07000021
:020000040000fa
:0400cc000c0700001d
:020000040000fa
:0400d0000c07000019
:020000040000fa
:0400d4000c07000015
:020000040000fa
:0400d8000c07000011
:020000040000fa
:0400dc000c0700000d
:020000040000fa
:0400e0000c07000009
:020000040000fa
:0400e4000c07000005
:020000040000fa
:0400e8000c07000001
:020000040000fa
:0400ec000c070000fd
:020000040000fa
:0400f0000c070000f9
:020000040000fa
:0400f4000c070000f5
:020000040000fa
:0400f8000c070000f1
:020000040000fa
:0400fc000c070000ed
:020000040000fa
:040100000c070000e8
:020000040000fa
:040104000c070000e4
:020000040000fa
:040108000c070000e0
:020000040000fa
:04010c000c070000dc
:020000040000fa
:040110000c070000d8
:020000040000fa
:040114000c070000d4
:020000040000fa
:040118000c070000d0
:020000040000fa
:04011c000c070000cc
:020000040000fa
:040120000c070000c8
:020000040000fa
:040124000c070000c4
:020000040000fa
:040128000c070000c0
:020000040000fa
:04012c000c070000bc
:020000040000fa
:040130000c070000b8
:020000040000fa
:040134000c070000b4
:020000040000fa
:040138000c070000b0
:020000040000fa
:04013c000c070000ac
:020000040000fa
:040140000c070000a8
:020000040000fa
:040144000c070000a4
:020000040000fa
:040208000c070000df
:020000040000fa
:04020c000c070000db
:020000040000fa
:040210000c070000d7
:020000040000fa
:040214000c070000d3
:020000040000fa
:040218000c070000cf
:020000040000fa
:04021c000c070000cb
:020000040000fa
:040220000c070000c7
:020000040000fa
:040224000c070000c3
:020000040000fa
:040228000c070000bf
:020000040000fa
:04022c000c070000bb
:020000040000fa
:040230000c070000b7
:020000040000fa
:040234000c070000b3
:020000040000fa
:040238000c070000af
:020000040000fa
:04023c000c070000ab
:020000040000fa
:040240000c070000a7
:020000040000fa
:040244000c070000a3
:020000040000fa
:040248000c0700009f
:020000040000fa
:04024c000c0700009b
:020000040000fa
:040250000c07000097
:020000040000fa
:040254000c07000093
:020000040000fa
:040258000c0700008f
:020000040000fa
:04025c000c0700008b
:020000040000fa
:040260000c07000087
:020000040000fa
:040264000c07000083
:020000040000fa
:040268000c0700007f
:020000040000fa
:04026c000c0700007b
:020000040000fa
:040270000c07000077
:020000040000fa
:040274000c07000073
:020000040000fa
:040278000c0700006f
:020000040000fa
:04027c000c0700006b
:020000040000fa
:040280000c07000067
:020000040000fa
:040284000c07000063
:020000040000fa
:040288000c0700005f
:020000040000fa
:04028c000c0700005b
:020000040000fa
:040290000c07000057
:020000040000fa
:040294000c07000053
:020000040000fa
:040298000c0700004f
:020000040000fa
:04029c000c0700004b
:020000040000fa
:0402a0000c07000047
:020000040000fa
:0402a4000c07000043
:020000040000fa
:0402a8000c0700003f
:020000040000fa
:0402ac000c0700003b
:020000040000fa
:0402b0000c07000037
:020000040000fa
:0402b4000c07000033
:020000040000fa
:0402b8000c0700002f
:020000040000fa
:0402bc000c0700002b
:020000040000fa
:0402c0000c07000027
:020000040000fa
:0402c4000c07000023
:020000040000fa
:0402c8000c0700001f
:020000040000fa
:0402cc000c0700001b
:020000040000fa
:0402d0000c07000017
:020000040000fa
:0402d4000c07000013
:020000040000fa
:0402d8000c0700000f
:020000040000fa
:0402dc000c0700000b
:020000040000fa
:0402e0000c07000007
:020000040000fa
:0402e4000c07000003
:020000040000fa
:0402e8000c070000ff
:020000040000fa
:0402ec000c070000fb
:020000040000fa
:0402f0000c070000f7
:020000040000fa
:0402f4000c070000f3
:020000040000fa
:0402f8000c070000ef
:020000040000fa
:0402fc000c070000eb
:020000040000fa
:040300000c070000e6
:020000040000fa
:040304000c070000e2
:020000040000fa
:040308000c070000de
:020000040000fa
:04030c000c070000da
:020000040000fa
:040310000c070000d6
:020000040000fa
:040314000c070000d2
:020000040000fa
:040318000c070000ce
:020000040000fa
:04031c000c070000ca
:020000040000fa
:040320000c070000c6
:020000040000fa
:040324000c070000c2
:020000040000fa
:040328000c070000be
:020000040000fa
:04032c000c070000ba
:020000040000fa
:040330000c070000b6
:020000040000fa
:040334000c070000b2
:020000040000fa
:040338000c070000ae
:020000040000fa
:04033c000c070000aa
:020000040000fa
:040340000c070000a6
:020000040000fa
:040344000c070000a2
:020000040000fa
:100400000fc622000eff27000e018800000000002a
:10041000000020000000e000020032000001200087
:10042000200288000c00070040a7200001002000e7
:1004300011000700000020000000e0000200320070
:100440000000020000000000f206020000000000b0
:100450000040da000000fe004440a9000000200037
:100460000000e0000300320000002000a00188002e
:100470004440a80000000600910188008000780038
:100480000000eb0015003700e280400032a0b4000d
:100490009101ba00e280400032a0b4009102ba009b
:1004a000e280400032a0b4000002eb00472bde00e7
:1004b000f507b200602ce10004003a000059eb009f
:1004c0008301e900fdff3e00040037006128e100e0
:1004d000010032000082eb000b00070011c3ba00dc
:1004e0001101ba000604e00003003a000200e00037
:1004f000e5ff3a0000000600f607b200960188000a
:1005000082007800f5ff37003159ba008301e90015
:100510000c0032002159ba008301e90008003200c2
:100520000400e00003003a00e280400032a0b40082
:10053000f5ff370011d9ba008301e900faff3a004c
:100540008100e800e180400032a0b4000000060015
:100550003600f800809fbe00829fbe00849fbe00d0
:10056000869fbe003400f80000002000a001880033
:100570000000fa00304080000000e00006003a0071
:10058000304080000000e8003040880030118000da
:10059000204088004c003700301180001040880057
:1005a0001140800030022000808f500005003a008a
:1005b00020408000004078000ee8b7000428ef00db
:1005c0004000370020408000c800dd00104080005f
:1005d00001007000204088000ec8bf000000fb0032
:1005e00091062000810f500020003200910620006b
:1005f000810f500007003c0041062000810f500091
:100600002300320071062000810f500008003200e4
:100610002c00370001072000810f50000d00320030
:1006200011072000810f5000220032002500370002
:1006300020408000cf80de00be020700a2702d00a7
:1006400033c2230013030700d0408800e140880034
:100650001c00370020408000cf80de00b50207007c
:10066000104188002141880016003700204080009a
:10067000cf80de00af020700a2702d0033c223003e
:100680000403070030418800414188000d00370015
:1006900020408000cf80de00a6020700020020007c
:1006a000832c2400fb020700504188006141880030
:1006b00004003700970f07001028ef009460a8008f
:1006c000000000000628ef008560a9000080fa0005
:1006d0003400f9004f03be004f02be004f01be00c0
:1006e0004f00be003600f90000400600809fbe00ab
:1006f0003400f80000002000a00188000000fa008b
:10070000001780000000e00008003200a116800001
:1007100000042000808f5000040032000040800060
:100720000000e8000040880003003700004080001f
:100730000000e900004088008400a9000080fa0061
:100740003400f9004f00be0000400600809fbe004c
:100750003400f80000002000a00188000000fa002a
:10076000001780000000e00008003200a1168000a1
:1007700000042000808f500004003a0000408000f8
:100780000000e800004088000300370000408000bf
:100790000000e900004088008680a9000080fa007f
:1007a0003400f9004f00be00004006001000fa00bf
:1007b000889fbe00008fbe00220798003307980074
:1007c0004407980055079800660798007707980037
:1007d0002e019000be0190001e00be009001070097
:1007e00090418800a1418800f441800005428000ca
:1007f00090418000a14180000001be000400be00c5
:1008000088010700f041880001428800944180007f
:10081000a5418000d0418000e14180000001be0080
:100820000400be007e0107000002be00b04180004f
:10083000c14180000001be000400be007901070034
:10084000b0418800c1418800604080000000e8009d
:100850006040880060408000e40f50000b003a00c8
:10086000104280002142800002002000030a240080
:10087000c901070010428800214288006000b800ca
:10088000b0418800c14188000c28ef00f041800091
:100890000142800018c0b30002c02f0093672c00f3
:1008a000ff0107000000e000010035000044eb00fc
:1008b0000804e0000400320000c02f0091672c0003
:1008c000f041880001428800f04180000142800030
:1008d00018c0b30002c02f0093672400f201070084
:1008e0000000e00001003c000044eb000804e000d0
:1008f0000400320000c02f0091672400f0418800fe
:100900000142880090418000a141800018c0b300de
:10091000d2cc2c00c3dc2300e10107000000e00082
:10092000010034000044eb000804e0001100320034
:1009300090418000a141800018c0b300d2cc2c00af
:10094000c3dc2b00d80107000000e00001003d00df
:100950000044eb000804e000060032006000b8002c
:100960007041880081418800704180008141800091
:100970005900370090418000a14180004e01900055
:10098000de019000430207000004be00f041800039
:10099000014280006e019000fe0190003d020700c0
:1009a0000001be000800be001e0107000004be00da
:1009b00010428000214280003eb99700ceb99700d6
:1009c000340207000001be000800be001501070048
:1009d0007041880081418800704180008141800021
:1009e00018c0b3006011b800af0107000000e000bc
:1009f00001003c000044eb000804e0000400320069
:100a000070418000814180007041880081418800f0
:100a1000704180008141800018c0b3006011b800af
:100a20009f0107000000e000010035000044eb00da
:100a30000804e00004003200704180008141800021
:100a400070418800814188007041800081418000b0
:100a500018c0b30002c02f00936f2c009001070054
:100a60000000e000010035000044eb000804e00055
:100a70000400320000c02f00916f2c0070418800ec
:100a800081418800704180008141800018c0b3001e
:100a900002c02f00936f2400830107000000e000d4
:100aa00001003c000044eb000804e00004003200b8
:100ab00000c02f00916f24007041880081418800a0
:100ac00090418000a1418000d0418800e141880030
:100ad00070418000814180004f04be000080fa0018
:100ae000000006000200fa00000f78001e007800e7
:100af0000000e0000400340010002000a40d0700f6
:100b00001e007800b90d07001e0078000000e0000c
:100b100004003d000000eb009d0d07001e00ea00f0
:100b2000b20d07001e0078000000e00004003a004b
:100b300020002000960d07000000eb00ab0d070021
:100b40000080fa00000006003600f800809fbe001a
:100b5000829fbe00849fbe00869fbe00889fbe000d
:100b60003400f80000002000a00188000000fa0016
:100b7000300020004e0d0700f10e07009040880065
:100b800090408000cf80de006a0107000200200054
:100b9000832c240000010700b0408800c140880079
:100ba00090408000110e0700564180006741800090
:100bb0003441800045418000124180002341800083
:100bc000b0408000c1408000d8408000e9408000f3
:100bd000869fbe000403be000202be000001be00ec
:100be0000800be00f1fe0700e4875700704188004e
:100bf0008141880070418000814180002c01070004
:100c000000007800a0408800704180008141800091
:100c100001f0a2002601070000007800b1ff0700e4
:100c200020048000680060000000e0000100320045
:100c3000e9a2a8008460a9000080fa003400f9004d
:100c40004f04be004f03be004f02be004f01be0066
:100c50004f00be003600f90000400600801f7800fb
:100c60003400f80000002000a00188000000fa0015
:100c7000200a80005040880084a0a9000080fa006b
:100c80003400f9004f00780000400600801f780013
:100c90003400f80000002000a00188000000fa00e5
:100ca000004080000000e800004088008660a90045
:100cb0000080fa003400f9004f0078000040060080
:100cc0000000fa0030002000f90c07009c0e07001d
:100cd00061f02f00810f50000b0035003000200024
:100ce000f30c0700960e0700a10f2000810f5000a3
:100cf00005003c000000eb007aff07000028ef0031
:100d00000000eb003500370030002000e80c070041
:100d10008b0e0700c1f92f00810f500014003d0019
:100d200009003700200e80008000eb00040107005e
:100d30003233230033f32b0056010700dc00070099
:100d40000000780067ff070030002000d80c070083
:100d50007b0e07000000e000f2ff35000000eb0012
:100d600060ff07000028ef000000eb001b003700c9
:100d700030002000ce0c0700710e07004106200055
:100d8000810f50001400340009003700200e80004d
:100d90008000eb00ea0007003233230033f3230026
:100da0003c010700c2000700000078004dff07006b
:100db00030002000be0c0700610e07000000e000bc
:100dc000f2ff3c000000eb0046ff07000028ef00a8
:100dd0000000eb00010037000000eb000080fa008b
:100de000000006000000fa000080eb006019880097
:100df000630d0700850c07008f0c0700010d07002d
:100e00009460a900550d0700c90c0700acff07004e
:100e1000e5a2a900ffff37000040da000000fe0055
:100e200003f0a200889fbe008a9fbe008c1f78003e
:100e300000010700070133006450e1004f00320059
:100e40006420e1005200320003826c0007003b0086
:100e50000905d0000306d000820f54000c065d0087
:100e60000200390002003200890178000306780090
:100e70008582550004003d000003fd008103fd0054
:100e80008502ea008b854200840f720002003b005d
:100e900060001000e08018006011b8000005eb0051
:100ea0007a28e1000a00390006007800c75ddd00fd
:100eb000f707b200878075002d003700828171002e
:100ec0000a017800610560008180d1000080d300b4
:100ed0008502e900f9ff3b000604400087844800d2
:100ee00002003b0060041400e0841c000988a30099
:100ef000070032008a817100828171006101640003
:100f00008904d1000884d3008b05e800170037005e
:100f10000978a30013003a000b00e000130034002e
:100f20008b05e9000804440089844c000a447400dd
:100f30000978a3000d003a000b00e0000700340020
:100f40008b05e9000804440089844c0001003a0044
:100f50000b0020000978a300f7ff32000001eb002e
:100f600002003700828171000a01780076000700d4
:100f70000cf0a70001f0a000bf0037006420e100e2
:100f800002003a00838f6c00bf0033000801be00ee
:100f90000200be00b8003700889fbe008a9fbe00d6
:100fa0008c1f7800a3000700aa00330003866c00a2
:100fb0006450e1002e0032006420e1003300320072
:100fc0006150e1002f0032006120e1003100320069
:100fd00085855500eb07b0000900200008042000bb
:100fe000050037000804440089844c000a003100e1
:100ff0000603430087834b000001530081815b009f
:10100000f8ff33000203be000800a00008044400fb
:1010100089844c00f6ff3900c639dd008301730076
:1010200001003200130020008904d1000884d3009d
:101030000998a300050032000800a7000300a000e3
:101040008904d1000884d3008b05e8008904d1000d
:101050000884d3000001eb000281d2003a000700af
:1010600001f0a1000cf0a70001f0a0008200370001
:101070006420e100840032000801be000200be00ce
:10108000f7ff37006120e1007f0032006000b80008
:10109000f3ff37000000200001f82700f0ff3700c1
:1010a00014002000af003700f4ff2f00ad00370020
:1010b0000001be004a0007000470a70003f0a10071
:1010c0006509b100160032000d0035006828e10006
:1010d00006003500f0ff2f00f1ff27000300e000bd
:1010e00013003b0001002800000005000000400044
:1010f000818048008502e900fcff3a0008003700c3
:10110000f88f420002003c008000eb000000050068
:101110008100d1000080d3008502e800fcff3a0086
:101120000300e00002003b0060001000e0801800b7
:10113000000006004f89de0082017800a40037001d
:101140006011b800b20037008100200061805500b6
:101150000b003d000b00200061fe2f000100e100ac
:101160001d00340082817100610164008904d10096
:101170000884d3000000e800faff3a007100200064
:10118000610064000300700002006000090032008a
:1011900061044400e0844c000988a5000500320089
:1011a0008b05e8006808e10002003a008904d100dc
:1011b0000884d300f20f20000258e10005003d0032
:1011c000c75ddd00f907b20089807500080078006e
:1011d000000006000bf827008b00780000000500d7
:1011e000c70ade00f107b200f50fb20008003200b6
:1011f000e1cf4200020032000170a000240005008f
:10120000810f700001003200040805004400050051
:10121000810f700002003a00140005008502e90009
:101220000000400081c04800fcff3b000170a000ae
:10123000240005000004be00e9ff07000003be0013
:101240000405be000200be00e5ff0700844f7500e4
:10125000000006000200be006450e10005003600f8
:101260006420e100020036000968a30001003a0092
:101270000800be000160a0004f0678004f05be00c8
:101280004f04be0000000600f0ff2f00f1ff270012
:10129000f9ff3700889fbe008a9fbe008c1f780030
:1012a000e4ff0700ebff330003866c006450e100ad
:1012b000240032006420e100270032006150e10088
:1012c000220032006120e100210032008b854200c3
:1012d000eb07b1000134b800003ab800080442003e
:1012e00089844a00013ab8000030b8008880400084
:1012f00009014a00040033000000400081804800da
:10130000020149008b05e900c909dd008301700075
:101310000100320013002000c814de004814dd0074
:101320004709de001200b200c808de000884700021
:1013300085ff070001f0a1000cf0a70001f0a0005c
:10134000cdff37006120e100cfff32000801be0071
:101350000200be00f7ff37006150e100fcff3a00d9
:10136000c9ff3700889fbe008a9fbe00841f780097
:10137000b0ff07004f00780011003300f0ff2f008e
:10138000838f6c0006003b00040565000a00a7007f
:101390000800370009f0a600100020000800370000
:1013a000820f5400838f5c0003003900100020007e
:1013b00001003e000000200009f0a7000000ea0044
:1013c0004f05be004f04be000000e0000000060014
:1013d000881f7800030478000300e00007003d0048
:1013e00060001000e080180060011900e081190021
:1013f00002003b0001f02d0003003700040007004d
:1014000008f0a70001f0a0004f04780000000600db
:10141000889fbe008a9fbe00008270000402710097
:1014200004827100260032000004be000200be00eb
:101430006011b8006b092000950220000182cf00e6
:101440000a0039000541b1000082cf0007003900d1
:101450000541b1000982cf00040039000541b10007
:101460000882cf00010039000541b1000542520059
:10147000120032000a003b008281710061016400a9
:101480008100d1000080d3008984d3000884d30078
:101490008b05e8000442e800f7ff3a000700370038
:1014a0000804440089844c00000048008180480002
:1014b0008b05e9000442e900f9ff3a0022ff07002a
:1014c0004f05be004f04be000000060080017800fa
:1014d00002003700b15978000201e9000200e00083
:0814e000fcff3a0000000600c9
:020000040000fa
:1014e800000800004600000000000000520800004c
:1014f8002620000002000000bbd6c000d6c5d600da
:10150800cad6cf00d6d4d600d9d6de00d6e3d600c8
:10151800e3d6e300d6e3d600e3d6e800d6e8d60063
:10152800edd6ed00d6edd600edd6ed00d6f2d6001c
:10153800fcd60100d706d70010d71f00d72ed7003a
:1015480033d73300d73dd70051d75600d75bd700e4
:101558005bd76500d76fd70074d77400d774d700ee
:1015680079d77e00d77ed7007ed78300d788d7006b
:101578008dd78d00d792d70097d79700d797d700e8
:101588009cd7a100d7a6d700a6d7ab00d7b0d70065
:10159800b5d7b500d7bad700bfd7bf00d7bfd700d8
:1015a800c4d7c900d7ced700ced7d300d7d8d70055
:1015b800ddd7e200d7e7d700ecd7f100d7f6d700a0
:1015c800f6d7fb00d700d80005d80a00d80fd800f6
:1015d8000fd80f00d814d80014d82300d828d80062
:1015e8002dd83200d832d8003cd84100d846d8008f
:1015f80055d85a00d85fd80064d86900d873d80085
:1016080087d88c00d891d8009bd8aa00d8afd8002a
:10161800bed8c300d8cdd800d2d8dc00d8e1d800d5
:10162800ebd8f500d8fad800fad80400d90ed900ba
:1016380013d92200d92cd90031d93600d93bd90089
:1016480040d94500d945d9004ad94f00d954d900c5
:1016580059d95e00d95ed9005ed96300d968d9002e
:101668006dd97200d972d90072d97c00d981d9009c
:1016780081d98600d98bd90090d99500d99ad900fb
:10168800a4d9ae00d9b3d900b3d9b800d9b8d90014
:10169800bdd9bd00d9c2d900c7d9cc00d9d1d9008c
:1016a800e5d9ea00d9ead900f9d9fe00d9fed9006e
:1016b80003da0800da0dda0012da1c00da21da009f
:1016c80026da2b00da35da003ada3a00da44da00b8
:1016d80049da4e00da53da0058da5d00da67da00e0
:1016e8006cda7100da76da008ada8f00da94da00d6
:1016f80094da9e00daa3da00a8daa800dab2da00ef
:10170800b7dac600dacbda00d5dada00dae4da00da
:10171800eedaf300daf8da00f8daf800dafdda00df
:1017280002db0700db07db000cdb1100db11db0051
:1017380011db2000db25db002adb3e00db43db007e
:1017480043db4800db4ddb0057db6100db66db0079
:1017580070db7500db7adb007fdb8400db89db0074
:1017680089db8e00db9ddb00a2dba700dbacdb00a6
:10177800b1dbb100dbb6db00bbdbc000dbc5db00e7
:10178800cadbcf00dbd4db00d4dbde00dbe3db002d
:10179800e3dbe800dbeddb00f2dbf700dbf7db0087
:1017a800f7dbf700dbfcdb0006dc0b00dc10dc0001
:1017b80010dc1a00dc1fdc0024dc2900dc38dc002b
:1017c80047dc4c00dc56dc005bdc6000dc6fdc00d6
:1017d80074dc7900dc7edc0083dc8800dc88dc00db
:1017e8008ddc9200dc9cdc00a1dca100dca6dc0026
:1017f800b0dcba00dcbfdc00c4dcc400dcc9dc003f
:10180800c9dcce00dcd3dc00d3dcd300dcd8dc00c0
:10181800d8dcdd00dcdddc00e7dcec00dcf1dc0042
:10182800f1dcf100dcf6dc00f6dcfb00dc00dd00be
:1018380005dd0a00dd0add000add1900dd1edd0018
:1018480023dd2d00dd32dd0032dd3c00dd41dd0031
:1018580041dd4b00dd55dd005add6400dd69dd004a
:1018680073dd7800dd7ddd0087dd8c00dd91dd0036
:101878009bdda000dda0dd00a5dda500ddaadd0063
:10188800afddb400ddb9dd00b9ddbe00ddbedd00d1
:10189800c3ddd200ddd7dd00dcdddc00ddffdd00ef
:1018a80004de0900de13de001dde2c00de31de0062
:1018b80040de4f00de54de005ede6300de68de00e0
:1018c80068de7200de81de0086de8b00de8bde00e5
:1018d80090de9000de90de009ade9f00dea4de003f
:1018e800a9dea900dea9de00a9deae00deb3de00b7
:1018f800b8debd00debdde00bddec200dec2de0039
:10190800c7decc00ded1de00d1ded600dedbde00b5
:10191800e0dee000dee5de00eadeea00deefde0023
:10192800f4def900defede0003df0300df08df007f
:101938000ddf1200df12df0017df1c00df1cdf00e5
:1019480021df2100df2bdf0030df3000df3adf004e
:1019580044df4900df4edf0053df6200df67df004e
:1019680071df7600df7bdf0080df8a00df8fdf003a
:1019780099dfa300dfa8df00addfad00dfb7df0030
:10198800bcdfbc00dfbcdf00d0dfd500dfdfdf005d
:10199800e4dfee00dff8df0002e00c00e011e00019
:1019a80016e01b00e01be00020e02500e02ae00034
:1019b8002fe03400e034e00039e03e00e03ee00093
:1019c8003ee04300e048e0004de05200e052e00015
:1019d8005ce06100e066e00070e07500e07ae0003d
:1019e8007fe08400e084e00089e08900e089e0008d
:1019f80089e08e00e08ee0008ee09300e093e00046
:101a08009de0a200e0ace000b1e0b100e0bbe00086
:101a1800c5e0ca00e0cfe000d4e0d900e0dee00095
:101a2800e3e0ed00e0f2e00001e10600e106e1009c
:101a380006e10b00e115e1001ae12400e129e100cb
:101a48002ee13300e13de10042e14700e14ce100d5
:101a58004ce15100e156e10060e16a00e16fe1000c
:101a680074e17400e174e10079e18800e19ce1002f
:101a7800a6e1ab00e1b0e100bae1bf00e1d3e100cb
:101a8800d8e1dd00e1dde100e2e1e200e1ece100c6
:101a9800f1e1f100e1f6e10000e20500e205e20013
:101aa8000ae20f00e214e20014e21900e21ee2006a
:101ab80023e22800e228e2002de22d00e232e200d3
:101ac80037e23700e23ce20046e25500e25fe2001e
:101ad80064e26900e269e20073e28700e291e200f1
:101ae80096e29600e2a0e200a5e2aa00e2bee200c9
:101af800cde2dc00e2e1e200e1e2eb00e2f0e2004c
:101b0800f5e2ff00e204e30004e30400e309e30074
:101b180009e30e00e313e30018e31d00e322e300ea
:101b280022e32c00e331e30036e33b00e340e3002b
:101b380045e34500e34ae30054e35900e35ee3006c
:101b48005ee35e00e363e30063e36800e36de300e4
:101b580072e37200e381e30086e39000e39ae30016
:101b68009fe39f00e3a9e300aee3b800e3bde30011
:101b7800c7e3cc00e3d1e300d6e3db00e3e0e30016
:101b8800e5e3f900e303e40008e40d00e41ce400e5
:101b980021e42b00e435e4003ae43a00e444e400ac
:101ba8004ee45300e458e4005de45d00e45de400c5
:101bb80062e47100e476e4007be47b00e480e40006
:101bc80085e48a00e48fe40094e49900e499e40051
:101bd80099e49e00e4a3e400a8e4ad00e4b2e400c4
:101be800b2e4bc00e4c1e400c1e4cb00e4d0e4000a
:101bf800d5e4d500e4d5e400dae4da00e4dae40078
:101c0800dae4df00e4dfe400dfe4e400e4e4e40035
:101c1800e4e4e900e4eee400eee4f300e4fde400cb
:101c280002e50200e507e50007e50c00e50ce50024
:101c380011e51100e516e50016e51b00e520e500b5
:101c480025e52a00e52ae5002fe53400e539e50019
:101c58003ee54300e54de50052e55700e55ce5004b
:101c680061e56100e566e50070e57a00e57fe5007d
:101c7800a2e5a700e5a7e500b6e5c500e5d4e500bf
:101c8800d9e5d900e5d9e500dee5de00e5f2e500b5
:101c9800f7e5fc00e501e60006e61000e615e600bb
:101ca8001ae61a00e61fe60024e62900e62ee600fa
:101cb8002ee63800e63de6003de64200e64ce6004a
:101cc80051e65600e65be60065e67400e679e60054
:101cd8007ee67e00e683e6008de69200e69ce6005e
:101ce800a1e6a600e6abe600b0e6b500e6bfe60072
:101cf800c4e6c900e6cee600d3e6d300e6d3e600a4
:101d0800dde6e200e6e2e600e7e6ec00e6f6e600fd
:101d1800fbe6fb00e600e70005e70a00e70ae70044
:101d28000fe70f00e714e70014e71400e719e700ce
:101d380019e71900e71ee7001ee72300e723e7007d
:101d480023e72300e732e70037e73c00e741e700f5
:101d580050e75a00e75fe7005fe76400e764e700e1
:101d680069e76e00e773e70073e77300e778e70059
:101d780078e77d00e782e70087e78c00e796e700d1
:101d88009be79b00e7a0e700a5e7aa00e7aae70012
:101d9800aae7af00e7b4e700bee7c300e7c8e7007b
:101da800c8e7d200e7d7e700dce7e600e7ebe700a3
:101db800ebe7f000e7f5e700fae7ff00e704e800e3
:101dc8000ee81300e813e8001de82200e822e80006
:101dd80027e82c00e82ce80031e83600e83be8006a
:101de8004ae85400e859e8005ee86300e868e8005b
:101df8006de87200e877e80081e88600e890e8007e
:101e080095e89f00e8a9e800b3e8b800e8b8e8005a
:101e1800bde8c700e8cce800d1e8d600e8e5e8006e
:101e2800eae8ef00e8f9e800fee80300e912e90053
:101e38001ce92100e92be90030e93500e935e90022
:101e48003ae94900e94ee90053e95800e95de9003b
:101e580062e96200e962e90067e96c00e96ce9009f
:101e68006ce97100e971e90071e97b00e980e9003a
:101e780085e98500e98ae9008ae99400e999e90099
:101e88009ee9a300e9a8e900ade9b200e9b7e900d5
:101e9800bce9c100e9c6e900cbe9d000e9dae9000c
:101ea800dfe9e400e9e9e900eee9ee00e9f3e90039
:101eb800f3e9f800e9fde90002ea0700ea11ea009f
:101ec80016ea1b00ea1bea0020ea2500ea2aea00d3
:101ed8002aea2f00ea43ea0048ea4800ea4dea0005
:101ee80057ea5c00ea61ea0066ea7000ea75ea000f
:101ef80084ea8900ea8eea0093eaa200eaa7ea00e7
:101f0800b1eab600eac5ea00cfead400ead4ea00aa
:101f1800e3eae800eaf2ea00f7eaf700eafcea0096
:101f280001eb0600eb0beb0010eb1a00eb1feb00cc
:101f380029eb2e00eb2eeb0033eb3800eb3deb00ea
:101f480047eb4c00eb51eb0056eb5600eb56eb0021
:101f580065eb6a00eb6feb0079eb7e00eb83eb003f
:101f680088eb8d00eb92eb0092eba100eba6eb0067
:101f7800a6eba600ebabeb00b0ebba00ebceeb00a8
:101f8800d8ebdd00ebddeb00e2ebf100ebf6eb006c
:101f9800fbeb0a00ec0fec0019ec2300ec28ec003a
:101fa80028ec2d00ec2dec0032ec3700ec3cec007a
:101fb80041ec4600ec46ec004bec5500ec5aec00ca
:101fc8005aec5f00ec5fec0064ec6400ec69ec0038
:101fd80069ec6900ec6eec0073ec7800ec78ec00ce
:101fe8007dec7d00ec7dec0082ec8700ec87ec005a
:101ff8009becaa00ecafec00afecb400ecb4ec0046
:10200800b4ecb900ecc3ec00c8ecc800ecc8ec00b8
:10201800d2ecdc00ece1ec00e6eceb00ecf0ec00e0
:10202800faec0400ed09ed000eed0e00ed13ed00e5
:102038001ded2200ed27ed0027ed2c00ed31ed0020
:1020480036ed3600ed3bed003bed4000ed45ed0093
:102058004fed5400ed54ed0059ed5900ed59ed00e8
:1020680059ed5e00ed63ed0068ed7200ed77ed006f
:1020780077ed7700ed7ced0081ed8600ed8bed00ce
:102088008bed9000ed95ed0095ed9500ed95ed004b
:102098009aed9f00ed9fed009fed9f00eda4ed00f0
:1020a800b3edb800edb8ed00bdedc200edc2ed0036
:1020b800c7edcc00edcced00ccedd100edd6ed00b8
:1020c800e5edea00edeaed00f9ed0300ee12ee00b1
:1020d80017ee2100ee30ee0035ee4900ee5dee0021
:1020e80067ee7100ee76ee007bee8000ee85ee0086
:1020f8008fee9400ee94ee0099ee9900ee99ee00c2
:1021080099ee9e00eeb2ee00b7eebc00eebcee001b
:10211800bceec100eec1ee00c6eec600eecbee008e
:10212800d0eed000eed0ee00dfeee400eee4ee00fc
:10213800e9eef300eef8ee00f8eefd00ee02ef0037
:102148000cef1100ef1bef0020ef2000ef20ef0055
:1021580025ef2500ef2aef002fef3900ef3eef00c3
:102168003eef5200ef57ef005cef6600ef6bef00b9
:102178006bef7000ef70ef007aef8900ef8eef00e1
:1021880093ef9300ef9def00a2efa200efa7ef00ff
:10219800acefac00efb6ef00bbefc000efc5ef004f
:1021a800d4efd900efd9ef00deefe300efe8ef005e
:1021b800f7ef0100f006f0000bf01000f010f0004f
:1021c80015f01a00f01ff00029f02e00f033f0008f
:1021d80038f03d00f042f0004cf05100f056f000ad
:1021e8005bf06000f065f0006af07400f079f000d0
:1021f80079f07e00f07ef00083f08300f088f00034
:102208008df09200f092f00092f09700f097f000b5
:1022180097f09c00f09cf000a1f0a600f0abf00055
:10222800abf0b000f0b5f000baf0ba00f0bff000c3
:10223800bff0c400f0c4f000cef0d300f0d8f00036
:10224800ddf0e200f0e7f000e7f0ec00f0f1f0007c
:10225800f1f0f100f0f1f000f6f0fb00f00ff10002
:1022680014f11400f114f10028f12d00f132f100fd
:1022780041f14600f14bf10050f15500f15ff100da
:1022880064f16400f16ef10073f17800f17df10002
:102298007df18700f18cf1008cf19600f1a5f10039
:1022a800aaf1af00f1b4f100b4f1b400f1b4f10057
:1022b800b9f1be00f1c3f100c3f1c300f1c8f100e8
:1022c800c8f1cd00f1d2f100d7f1d700f1dcf1006f
:1022d800e1f1e600f1ebf100f0f1f000f1f5f100c9
:1022e800f5f1fa00f1faf100fff10400f209f20049
:1022f80009f20e00f213f20018f22200f227f2009f
:1023080027f23600f23bf20040f24500f254f200a8
:102318005ef26300f268f20086f28b00f28bf20044
:1023280090f29f00f2a4f200a9f2ae00f2b3f2001c
:10233800b8f2bd00f2c2f200ccf2d100f2d6f2003f
:10234800d6f2db00f2dbf200e0f2e500f2eaf2009e
:10235800eff2ef00f2f4f200f9f2fe00f2fef20002
:1023680003f30300f30df30012f31700f31cf3005b
:1023780021f32100f326f30026f32b00f32bf300bf
:1023880030f33500f33af3003ff34400f34ef30023
:1023980053f35300f353f30058f36200f367f30069
:1023a8006cf37100f371f30076f37600f376f300c3
:1023b8007bf38000f385f3008af38f00f38ff3003b
:1023c80094f39400f3a3f300bcf3c100f3c1f3004a
:1023d800c6f3da00f3dff300e9f3fd00f302f400db
:1023e80002f40700f40cf40011f41100f416f400e0
:1023f80020f42500f42af4002ff43900f43ef40008
:1024080043f44300f448f40048f44800f452f4005c
:1024180057f45700f45cf4005cf45c00f461f400d9
:1024280066f46600f470f40075f47a00f47ff40042
:1024380084f48400f489f40089f48900f489f400b0
:1024480089f48e00f498f400a2f4a700f4acf40028
:10245800acf4b100f4b6f400bbf4bb00f4c0f40073
:10246800c5f4ca00f4cff400d4f4d900f4def400c3
:10247800e3f4e800f4edf400edf4f200f4f2f40013
:10248800f2f40600f50bf50010f51500f51af50045
:102498001ff52400f524f50029f53d00f542f50067
:1024a8004cf56000f565f5006af56a00f574f5000d
:1024b80079f57900f57ef50083f58800f58df5004e
:1024c80092f59200f597f50097f59c00f5a6f500b2
:1024d800b0f5b500f5baf500bff5ce00f5d3f500b7
:1024e800d8f5dd00f5e2f500e2f5e700f5ecf500da
:1024f800f1f5fb00f500f60000f60a00f60ff6000d
:102508000ff60f00f614f60019f61e00f61ef60078
:1025180023f62800f62df6002df63200f641f600d7
:1025280046f64600f64bf6004bf65000f65af60013
:1025380064f66900f669f60073f67800f67df60031
:102548007df68200f682f60087f68c00f691f6009a
:1025580091f69600f69bf6009bf6a000f6a5f6000d
:10256800a5f6aa00f6aff600aff6af00f6b4f6008f
:10257800b9f6b900f6b9f600c3f6d200f6d7f600f8
:10258800e1f6e600f6e6f600ebf6ff00f604f700e3
:1025980009f70e00f71df70027f72c00f72cf700b6
:1025a8002cf73100f731f70040f74f00f754f700e8
:1025b8005ef76300f768f70072f77700f77cf700bb
:1025c80081f78100f790f70095f79a00f79ff700d9
:1025d8009ff7a400f7a4f700a4f7a900f7b8f7003d
:1025e800bdf7cc00f7d6f700dbf7e000f7eff70010
:1025f800f4f7f900f7fef70003f80300f803f80012
:1026080003f81200f817f80017f81700f81cf8007c
:1026180021f82100f826f80026f83000f83af800ea
:102628003ff83f00f844f80044f85300f858f80021
:1026380058f85800f85df80067f86c00f876f8006c
:102648007bf88000f885f80085f88f00f894f8008a
:1026580094f89e00f8a3f800adf8b200f8b7f800b7
:10266800c1f8d000f8d5f800d5f8df00f8e4f80094
:10267800e9f8ee00f8f3f800f8f8fd00f8fdf800c6
:1026880002f90200f90cf90011f91100f916f90024
:1026980016f91b00f920f90025f92a00f92ff9008d
:1026a8002ff93400f934f90039f93900f93ef90005
:1026b8003ef94300f943f90048f94800f94df9009b
:1026c80052f95200f952f90052f95200f952f90040
:1026d8005cf96100f966f9006bf96b00f970f900b3
:1026e80075f97a00f97af9007ff97f00f97ff90026
:1026f80089f98e00f98ef90098f9b100f9b6f90058
:10270800b6f9bb00f9c0f900c0f9c500f9cff90066
:10271800d4f9d900f9def900e3f9e800f9e8f9009d
:10272800f2f9f700f9f7f90006fa0b00fa10fa00c7
:1027380010fa2400fa29fa002efa3300fa38fa00bf
:102748003dfa3d00fa42fa0042fa4700fa47fa0019
:102758004cfa5100fa51fa0056fa5b00fa60fa0096
:1027680065fa6a00fa6afa006afa6f00fa79fa00fa
:1027780083fa8800fa88fa0088fa8800fa8dfa0045
:1027880092fa9700fa9cfa00a6faab00fab5fa009a
:10279800bafabf00fabffa00bfface00fad3fa00bd
:1027a800ddfae200fae7fa00f1faf600faf6fa00c2
:1027b800fbfa0000fb00fb0005fb0a00fb0ffb0017
:1027c80014fb1900fb23fb0032fb3c00fb41fb0020
:1027d8004bfb5000fb55fb0064fb7300fb78fb00d0
:1027e80078fb7800fb82fb0087fb9100fb96fb00df
:1027f800a0fba500fba5fb00a5fba500fbaafb0011
:10280800aafbb900fbbefb00c3fbc300fbdcfb005b
:10281800e1fbe600fbebfb00fafbff00fb04fc001e
:1028280004fc0e00fc13fc0018fc1d00fc22fc003c
:1028380022fc2c00fc31fc0031fc3600fc3bfc0087
:102848003bfc4000fc45fc004afc4a00fc4afc00fa
:102858004ffc5400fc54fc0054fc5e00fc63fc007c
:1028680063fc6800fc72fc0077fc7c00fc7cfc00cc
:1028780081fc8b00fc90fc0090fc9000fc95fc0017
:102888009afc9f00fca4fc00a9fcae00fcb3fc0071
:10289800bdfcc200fcc2fc00c2fcc700fcccfc00b2
:1028a800d1fcd600fcd6fc00dbfce500fceafc0011
:1028b800eafcea00fceffc00f4fcf900fcfefc007a
:1028c80008fd0d00fd12fd0012fd1200fd12fd00b5
:1028d80017fd2100fd26fd0026fd2600fd26fd0032
:1028e8002bfd3000fd35fd0049fd4e00fd4efd007d
:1028f80053fd6700fd6cfd006cfd6c00fd6cfd0078
:1029080076fd8000fd85fd0085fd8500fd85fd00c7
:102918008ffd9400fd94fd0099fd9e00fda3fd0030
:10292800a8fdad00fdadfd00b2fdb700fdbcfd008a
:10293800c1fdc600fdcbfd00cbfdcb00fdcbfd00ee
:10294800d0fdda00fddffd00e4fde400fdeefd0052
:10295800f3fdf800fdf8fd0002fe0c00fe20fe006d
:102968002afe3e00fe4dfe0052fe5c00fe61fe00a7
:1029780061fe6100fe66fe0070fe7500fe75fe00d9
:102988007afe7f00fe84fe0089fe8900fe89fe0033
:102998008efe8e00fe93fe00a2fea700fea7fe009c
:1029a800b6febb00febbfe00bbfec000fec5fe00bf
:1029b800cafecf00fed4fe00d4fed900fedefe0023
:1029c800e3fee800feedfe00f2fef200fef2fe007d
:1029d800f7fefc00fefcfe0001ff0600ff0bff00f7
:1029e8000bff0b00ff1aff001fff1f00ff24ff0053
:1029f80024ff2900ff3dff0042ff4200ff4cff007b
:102a080051ff5600ff5bff0060ff6500ff65ff0098
:102a18006fff7400ff7eff0083ff8300ff88ff00c5
:102a280088ff8d00ff8dff0092ff9700ff9cff003d
:102a38009cffa100ffa1ff00a1ffa600ffb0ff00bf
:102a4800b5ffb500ffceff00d3ffd300ffd8ff00ce
:102a5800ddffe200ffecff00f1fffb00ff050000d7
:102a68000a000a00000a00000f001900001e0000fa
:102a780028002d00002d000032003700003700002c
:102a880037003700004600004b005000005000009f
:102a980050005500005a00005a005a00005f00001c
:102aa800640069000069000069006e00006e0000a3
:102ab80073007300007800007d008200008200002f
:102ac80087008c000091000091009600009600009d
:102ad8009b00a00000a00000a500aa0000af000015
:102ae800af00af0000af0000b400b40000b40000b5
:102af800be00c30000c80000cd00d20000d700000f
:102b0800d700e10000e60000e600eb0000eb000063
:102b1800eb00f00000f00000f500f50000fa0000fe
:102b2800ff0004000109010013011800011d010044
:102b380022012700013b010045014f00015401001b
:102b480059016800018601009001a40001a9010053
:102b5800ae01b30001b30100bd01c20001c701000d
:102b6800c701d60001e50100ef01f40001f90100f9
:102b7800fe0103000203020003021700021c020008
:102b88002b0230000230020035023a00023f0200f8
:102b980044024e000253020058025d000262020025
:102ba8006202670002670200710276000276020084
:102bb800760276000276020076027b00027b020033
:102bc8007b027b00027b02008002800002850200fb
:102bd80085028500028502008a028a00028f0200af
:102be80094029900029e02009e02a30002a802001d
:102bf800ad02ad0002bc0200c102c60002cb020059
:102c0800cb02d00002d00200d502da0002e40200b2
:102c1800e902e90002f30200f802f80002f80200f3
:102c2800f802fd0002070300110316000320030049
:102c380025032a00032a03002a032f00033903006f
:102c48004d0352000352030057036100036603005b
:102c580066036b00036b03006b037500037a0300c4
:102c68007f038900038e030093039d0003a20300e2
:102c7800a703a70003ac0300ac03b10003b603002d
:102c8800bb03bb0003c00300c503ca0003cf030096
:102c9800d403d40003d90300d903de0003e30300ff
:102ca800e803ed0003f20300f203f20003fc030063
:102cb800010401000401040006040b00040b0400d5
:102cc8001a042e00043304003804380004380400c1
:102cd8003d043d000442040042044700045104003e
:102ce800560456000460040065046a00046a04007f
:102cf8006f047400047904007904790004790400ed
:102d080079047e00048d0400920492000492040069
:102d1800a104a60004a60400ab04c90004ce040064
:102d2800ce04d30004e70400ec04f6000400050018
:102d380005050a00050a05000a050f000519050022
:102d48001e051e000523050023052800052d050086
:102d58002d0532000537050037053c000541050003
:102d6800410546000546050046054b00054b050094
:102d78004b054b000550050055055a00055f050039
:102d88005f055f000564050069056e0005730500b1
:102d980073057d000582050087058700058c050001
:102da8009105910005960500960596000596050083
:102db8009b05a00005a00500a005a50005a5050028
:102dc800b405b90005b90500be05c80005cd050064
:102dd800d205d70005dc0500dc05eb0005f0050091
:102de800fa05ff0005ff0500ff05040006180600a8
:102df80022062700063606003b064000064006006d
:102e080045064500064506004a06540006590600d0
:102e180059065e000663060063066800066d060034
:102e2800720672000677060077068100068606009d
:102e380086068b00068b060090069a00069f060001
:102e48009f06a40006a40600a906ae0006ae06006a
:102e5800b306b30006bd0600c206cc0006d60600bf
:102e6800e506ef0006f40600f906fe000603070073
:102e7800080712000717070017071c00071c0700a0
:102e880021072600072607002b072b00072b070022
:102e980035073a00073a07003a073a00073f0700a4
:102ea80044074900074e0700530758000758070012
:102eb8005d0762000767070067076c000771070076
:102ec80080078500078f07009407990007a8070067
:102ed800ad07b20007b70700cb07d50007e4070026
:102ee800f307f80007f8070011081600081b080088
:102ef800200820000820080020082a00082f0800c1
:102f08002f082f00083408003e084300084d080029
:102f180052085200085c0800610861000861080056
:102f280066086b00086b08006b08700008750800dd
:102f38007a087a00087f0800840884000889080055
:102f480089088e00089308009308930008980800e1
:102f58009d08a20008a70800ac08ac0008b108004a
:102f6800b608c00008cf0800d408d90008de080059
:102f7800f2081500091a09001a091a00091f0900a0
:102f88001f09330009380900470951000960090081
:102f980079098300098d090092099700099c0900a5
:102fa8009c09a60009ab0900b509ba0009c40900c3
:102fb800c909ce0009d30900dd09e20009e20900c8
:102fc800e209e20009f10900fb0905000a0a0a0002
:102fd8000a0a0a000a140a00190a19000a190a003a
:102fe8001e0a23000a230a00230a23000a280a00cb
:102ff800280a28000a280a00370a3c000a410a0061
:10300800460a50000a550a005a0a5a000a5a0a0083
:103018005f0a5f000a640a00690a6e000a6e0a0005
:10302800730a73000a730a00780a7d000a7d0a0091
:103038008c0a91000a960a00960a9b000aa00a00c8
:10304800aa0aaf000ab40a00b40ac8000acd0a00e6
:10305800d20ad2000ad70a00d70ae1000ae60a0013
:10306800e60aeb000aeb0a00eb0af0000aff0a0086
:10307800090b13000b180b001d0b27000b2c0b0062
:103088002c0b31000b310b003b0b40000b450b00a8
:103098004a0b4f000b540b005e0b63000b680b00d0
:1030a800680b6d000b6d0b007c0b81000b810b0016
:1030b800860b8b000b8b0b00950b9a000b9f0b005c
:1030c800a40ba4000ba40b00a40ba9000bae0b00cf
:1030d800ae0bbd000bc20b00c70bd6000bdb0b0001
:1030e800e00be0000be50b00e50bf4000bfe0b001a
:1030f800030c03000c080c000d0c12000c170c003c
:10310800260c30000c350c003a0c44000c490c001d
:10311800490c49000c490c00490c49000c4e0c00a4
:103128004e0c4e000c5d0c00620c62000c620c0030
:10313800670c71000c760c00760c80000c850c0076
:10314800850c8a000c8f0c008f0c99000c9e0c00cb
:10315800a80cad000cb20c00b20cbc000cc10c00e9
:10316800c60cd0000cd50c00df0ce4000ce90c00f8
:10317800e90ce9000ce90c00f30cf8000cf80c0061
:10318800fd0c02000d020d00070d11000d160d00bb
:10319800160d1b000d1b0d00250d2a000d2a0d0014
:1031a8002f0d34000d390d00390d3e000d430d0073
:1031b800480d48000d4d0d00520d52000d5c0d00dc
:1031c800610d61000d660d006b0d6b000d700d003b
:1031d800750d75000d7a0d00890d98000d9d0d0077
:1031e800a20da7000dac0d00bb0dc5000dca0d004a
:1031f800ca0dcf000dd90d00de0de3000de80d005e
:10320800ed0df2000df20d00f70dfc000d010e00a2
:10321800060e0b000e100e00150e1a000e240e00de
:10322800290e38000e3d0e00420e47000e470e00d4
:10323800600e65000e790e007e0e7e000e830e0075
:10324800830e88000e8d0e00920e92000e920e00d4
:10325800970e97000e9c0e00a10ea1000ea60e0060
:10326800ab0eab000eab0e00b00eb5000eb50e00e7
:10327800b50eb5000eb50e00ba0eba000ebf0e00a0
:10328800c90ece000ed30e00d30ed3000ed80e00fa
:10329800dd0edd000ee20e00e70eec000eec0e0077
:1032a800f60efb000e000f00050f05000f0a0f00b9
:1032b8000f0f0f000f140f001e0f23000f230f0016
:1032c800230f28000f2d0f00320f37000f460f0075
:1032d8004b0f5f000f640f006e0f73000f730f002a
:1032e8007d0f91000f960f00960f9b000fb90f00ee
:1032f800be0fbe000fc30f00cd0fd2000fdc0f00b2
:10330800e10fe6000fe60f00eb0ff0000ffa0f00d9
:10331800ff0f04001004100004100400100910002e
:103328000e101800101d10001d101d00102c10008c
:103338003b104000104510004a104f001059100073
:10334800631068001068100068106d00106d1000a0
:1033580072107700107c100086108b0010901000ff
:103368009f10a40010a41000ae10b30010b81000f5
:10337800bd10c20010c71000cc10db0010e5100013
:10338800ea10ef0010ef1000f410fe001003110017
:10339800081108001108110008110d00110d110085
:1033a80017111c001121110026112600112b1100e4
:1033b80030113500113511003a113a00113f110052
:1033c80044114900114911004e11530011581100c0
:1033d800581162001167110067116c00116c11001f
:1033e8006c117b001180110085118f00119911005b
:1033f8009e11a30011a81100ad11b70011bc110056
:10340800c111c10011cb1100d011d00011d511008c
:10341800da11da0011da1100df11df0011e411000e
:10342800e911e90011ee1100f311f30011f8110090
:10343800fd11fd0011fd1100fd110200120712001f
:1034480007120700120c12000c121600121b1200b1
:10345800201225001234120039124300124d1200b6
:103468006b127a00127f12007f128e00129d1200da
:10347800a712ac0012ac1200ac12b10012bb1200c1
:10348800c012c50012c51200ca12cf0012d4120011
:10349800ed12f700120113000b1324001329130077
:1034a80029133300133d130042134700134c130034
:1034b8004c135100135613005b135b00135b13008e
:1034c8005b1360001360130065136a00136f130029
:1034d800741374001374130074137e0013831300a1
:1034e80088138d00138d130092139200139213000a
:1034f80097139700139c13009c139c00139c1300b4
:103508009c13a10013a11300a113a60013ab130071
:10351800b013b00013b01300b513ba0013bf1300f3
:10352800bf13c40013c91300ce13d30013d3130061
:10353800d813dd0013e71300ec13f10013f11300a7
:10354800001405001405140005140a00141e1400c4
:1035580023142300143c140050145500145f140065
:10356800641469001473140082148700148c140006
:103578009614a50014aa1400aa14af0014b41400d9
:10358800be14c30014c81400c814c80014c814001a
:10359800cd14cd0014cd1400d214d70014dc1400bf
:1035a800dc14dc0014e11400eb14f00014f5140032
:1035b80009150e00150e15001d152200152c1500f5
:1035c8003b154500154a15004a15590015631500a5
:1035d80068156d00156d15006d15720015721500d2
:1035e800771581001586150086159000159515002c
:1035f8009515a40015a91500b315b80015b8150040
:10360800b815bd0015c21500c715d60015db150085
:10361800db15f40015f91500f915fe001503160061
:1036280003160800160816000d160d0016121600cf
:1036380012161200161716001c161c00161c16006f
:103648002116210016261600261626001626160014
:10365800261630001635160035163a00163f1600a5
:103668003f164900165816005d165d00165d1600d7
:103678007616800016851600851694001699160091
:10368800b216cb0016d01600d516da0016df1600d3
:10369800fd160200170c170016171b001725170038
:1036a8002a172a00172f170034173e00174817004b
:1036b8004d174d00174d170052175200176117008c
:1036c80070177500177517007f1784001789170082
:1036d80093179d0017a21700a217a70017ac170091
:1036e800ac17ac0017b11700b117b60017bb17001d
:1036f800bb17c00017c51700ca17ca0017cf170095
:10370800d417d90017de1700de17e30017e31700f8
:10371800e317e80017ed1700f217f70017fc17007a
:1037280006180b00181518001a181f001829180079
:103738002e1833001838180042184700184c180083
:103748004c185100186518006a186f00186f180097
:103758006f187400187418007e18830018831800f6
:1037680088188d001892180097189c0018a1180046
:10377800ab18b00018b01800b518b50018ba180082
:10378800c918ce0018d31800d318d80018dd1800af
:10379800dd18e20018e71800fb180500190a1900df
:1037a80014191900191e190028192d00192d1900ae
:1037b80032194b001950190050195f00196419008b
:1037c80064196900196e19007319780019781900bd
:1037d80078197d00198219008c1991001996190021
:1037e80096199b00199b1900a019aa0019af190076
:1037f800af19af0019b41900b419be0019c31900e4
:10380800c319c80019c81900cd19d20019d7190051
:10381800d719e10019e61900eb19f00019f519009c
:10382800fa1904001a091a00131a18001a1d1a00a6
:103838001d1a1d001a271a00361a3b001a401a00d2
:10384800451a4a001a4f1a00541a59001a5e1a00eb
:10385800631a68001a6d1a00721a77001a7c1a0027
:10386800811a81001a861a00861a8b001a901a008b
:10387800901a95001a951a009a1a9f001aa41a000d
:10388800a91aae001aae1a00ae1ab3001ab81a0076
:10389800b81ac2001acc1a00d11ad6001adb1a00bc
:1038a800e01ae5001aea1a00ef1af4001af91a00e9
:1038b800031b08001b0d1b00121b12001b171b000b
:1038c8001c1b1c001b261b00351b3a001b491b0038
:1038d8005d1b6c001b801b00851b8a001b9e1b0048
:1038e800a31ba8001bad1b00c11bd0001bd51b00d0
:1038f800e41be9001bee1b00ee1bf3001bfd1b0085
:10390800021c02001c021c00111c1b001c201c00b5
:10391800251c2f001c341c00341c3e001c431c00ba
:10392800521c61001c661c00661c66001c6b1c0097
:10393800701c70001c701c00751c75001c751c0028
:103948007a1c7a001c7f1c007f1c84001c841c00cd
:10395800891c89001c8e1c008e1c93001c981c005e
:10396800981c9d001ca21c00a71cac001cb11c00cc
:10397800b61cb6001cbb1c00c01cc0001cc51c002b
:10398800c51cca001ccf1c00cf1ccf001cd91c00b2
:10399800e81cf2001cf71c00f71cfc001c061d00ac
:1039a8000b1d0b001d0b1d00151d1a001d1f1d00f2
:1039b800241d29001d291d002e1d33001d381d0042
:1039c800421d47001d471d00511d56001d5b1d006f
:1039d800601d65001d651d006a1d6f001d741d00ba
:1039e8007e1d83001d831d00831d8d001d971d00f6
:1039f8009c1da6001dab1d00b01db5001dbf1d0000
:103a0800c41dce001dd31d00d81de2001de71d00fa
:103a1800f11dfb001d001e000a1e0f001e191e00ce
:103a2800281e37001e411e00461e4b001e501e0059
:103a3800551e55001e551e005a1e5f001e5f1e00b3
:103a48006e1e73001e781e00781e78001e7d1e00f4
:103a58007d1e82001e821e00821e87001e871e0099
:103a68008c1e8c001e8c1e00911e96001e9b1e0034
:103a7800a01ea5001eaa1e00af1eaf001eaf1e008e
:103a8800b41eb4001eb41e00b91ec8001ed21e000b
:103a9800d71ed7001edc1e00e11ef0001ef51e001a
:103aa800fa1eff001e091f000e1f13001f181f001b
:103ab800181f1d001f221f002c1f31001f361f005a
:103ac800401f45001f4a1f004f1f54001f591f0069
:103ad8005e1f5e001f631f00681f6d001f6d1f00c3
:103ae800721f77001f771f007c1f7c001f811f003b
:103af800861f8b001f951f009a1f9a001f9f1f008b
:103b0800a41fb8001fcc1f00f91ffe001f082000cb
:103b18000d202b00203f200044204e00205820007c
:103b28005d206c002071200071207b002080200027
:103b380080208500208a20008f2094002094200077
:103b480099209e00209e2000a320a80020a82000e5
:103b5800ad20b20020b72000b720bc0020c1200053
:103b6800c620c60020cb2000d020df0020e42000a3
:103b7800e920f30020f82000f820fd0020022100b1
:103b880002210700210721000c2111002111210029
:103b980016211b002120210025212a00212a21008d
:103ba8002a212a00212f210034213e00214321000f
:103bb80043214800214d210052215700215c21005a
:103bc80061216b00217021007a218900218e21005a
:103bd8009d21a20021a22100a221b10021b621002d
:103be800b621bb0021c02100c521c50021c5210087
:103bf800ca21ca0021cf2100cf21cf0021cf210027
:103c0800d421d40021d42100d921d90021de2100da
:103c1800e821ed0021ed2100f221f20021f7210039
:103c2800f721f70021fc21000122060022062200cc
:103c380006221000221522001a221f002224220028
:103c480029222e00222e2200332238002247220069
:103c58004c225100225622005b225b002260220087
:103c680065226a00227422007e228800228d2200aa
:103c78009722a10022b02200b522ba0022c4220055
:103c8800c922c90022d32200ec220500230a2300fe
:103c98000f230f00231423001923190023232300c3
:103ca80037233c00233c2300502355002364230082
:103cb80069236e002373230073237d00238223006e
:103cc80087238c00239123009b23a00023a5230096
:103cd800a523aa0023af2300b423b40023b42300f0
:103ce800b923b90023b92300c323c80023cd230077
:103cf800d223d20023d72300dc23dc0023e12300d6
:103d0800f023fa0023ff2300ff23040024092400e2
:103d18000e240e00241824001d241d002422240033
:103d280027242c00242c24003124310024312400a1
:103d380036243600243b2400402440002445240037
:103d480045244a00244f24004f24590024632400aa
:103d580068246800246d24007224770024772400e6
:103d68007c24810024812400812481002490240063
:103d780095249500249f2400ae24b30024b3240086
:103d8800c224c70024d12400d624d60024d6240077
:103d9800db24ef0024f42400f924fe00240325008a
:103da800032503002508250008250800250d250002
:103db800122512002517250017251c00252125008e
:103dc80026252b00253525004425490025532500a7
:103dd80058255d002562250067256c00257625009d
:103de8007b258000258525009425a30025a825008e
:103df800ad25b20025b72500b725bc0025c1250093
:103e0800c625d00025d52500da25da0025e42500c9
:103e1800e925e90025ee2500f325f80025f8250019
:103e2800fd2502002602260007260c00260c260087
:103e38001b262000262526002a262f0026342600a9
:103e480034263900263926003e264800264d26000d
:103e58004d266100266626006b266b00267026001c
:103e680070267a00267f26008e2693002693260049
:103e780093269800269826009d269d0026a72600b2
:103e8800ac26ac0026ac2600ac26b60026bb260025
:103e9800c026c50026ca2600ca26ca0026ca260089
:103ea800cf26de0026ed2600f226f70026fc2600a7
:103eb800012701002706270006271500271a2700d3
:103ec8001f272400272e27003327380027472700dd
:103ed8004c2751002756270060276f0027792700b5
:103ee8007e278300278327008d27920027922700ab
:103ef80092279200279727009c27a10027a1270037
:103f0800a627a60027ab2700b027b50027b52700ae
:103f1800ba27bf0027c42700c927ce0027ce27000d
:103f2800d327d80027dd2700e227f60027fb270044
:103f3800fb2700002805280005280a00280f28006c
:103f480014281900281e28001e281e0028232800cf
:103f58002d2832002832280037283c00284b28001a
:103f68005f286400286428006928730028782800de
:103f78007d287d002882280087289100289628001f
:103f8800aa28af0028be2800c328c80028cd2800ca
:103f9800d228dc0028e12800e628eb0028f02800d9
:103fa800f028f00028f02800f528fa0028ff28005b
:103fb800042904002904290009290e0029132900cd
:103fc8001d292200292729002c29310029312900ff
:103fd80036293b002900000078280000e80300008b
:103fe800000000005008000002000000020000006d
:103ff800ee020000460800000a0000000000000071
:04400800b22380005f
:020000040000fa
:10400c000000fa00dec2a800d202a8008200a900bb
:10401c008220a9008400a9008680a9009400a80031
:10402c009680a8000080fa00000006000000fa004c
:10403c00c662a800c642a8002c63a9002c43a900a4
:10404c001019800000d0a10000e0a10000f0a10038
:10405c0010198800a0c0b30024e3b7002143a800c6
:10406c00001980000080a1000090a10000198800b8
:10407c00001980000050a0000060a0000070a0009b
:10408c00001988002119800000f021000100700047
:10409c00201988002043a90021e3a8000080fa0021
:1040ac00000006000200fa00000f78001e007800e5
:1040bc00401988002023a80000000000001980008f
:1040cc00610060000000e000fcff3200001880007e
:1040dc000080fa00000006000000fa003116800093
:1040ec0000032000010070003016880070002000d2
:1040fc00200f880000a62e00300f8800e1e1a900f7
:10410c00e0e1a800e0c1a900e041a900e301a8009a
:10411c00e141a800e121a800e101a8000080fa001b
:10412c00000006000000fa00d8a2a900d882a9005d
:10413c00000e80000040a1000050a1000060a10012
:10414c000070a100000e8800c941a800000e80007c
:10415c000000a1000010a100000e8800000e8000dd
:10416c000020a1000030a100000e8800f0e7230021
:10417c00200e8800c221ef00c1e1a8000080fa00e7
:10418c00000006000200fa00000f78001e00780004
:10419c00e10f500007003200e20f5000080032001f
:1041ac000000e00009003a00c8c1a900c841a800fd
:1041bc0009003700c8c1a800c841a9000600370093
:1041cc00c8c1a800c841a80003003700c8c1a80096
:1041dc00c841a800000000000080fa0000000600a2
:1041ec000200fa00000f78001e007800d00e880044
:1041fc000080fa00000006000000fa000421ef0025
:10420c000021ef008460a9002005800000c0a100ff
:10421c0000d0a10000e0a00020058800200880004c
:10422c000040a1000050a00020088800409c200005
:10423c001008880005e1a8000080fa0000000600c4
:10424c000000fa001221ef000a21ef008500a900fe
:10425c00400580000000a0000010a0000020a0007d
:10426c0040058800900880000040a0000050a0008d
:10427c009008880000a62e007008880013e1a800a2
:10428c000080fa00000006000000fa00d302a8002b
:10429c00100a80000000a1000010a1000020a10065
:1042ac00100a880042e1a900100a80000050a10009
:1042bc000060a100100a8800200580000040a000ca
:1042cc000050a1000060a100200588008420a900f6
:1042dc00100a80000000a0000010a0000020a10027
:1042ec00100a88000080fa00000006000000fa00a6
:1042fc00d322a800300a80000000a1000010a10009
:10430c000020a100300a880046e1a900300a800094
:10431c000050a1000060a100300a88003005800028
:10432c000040a0000050a1000060a10030058800f2
:10433c0084a0a900300a80000000a0000010a0009a
:10434c000020a100300a88000080fa00000006005e
:10435c000000fa00d2c2a800d2a2a80061c0a80036
:10436c0061e0a8009660a8008660a9000080fa00b1
:10437c00000006000000fa000080eb00f016880038
:10438c00de62a9002062a900000120004011880013
:10439c009560a80022e2a90022c2a90021e2a8008f
:1043ac002342a8000080fa00000006000200fa0078
:1043bc00004f780001003700000000001111800050
:1043cc0000202000008060000000e000faff3a00ae
:1043dc001e00fb00201188000080fa00000006007f
:1043ec000400fa00100798000040eb00004f780022
:1043fc000040eb00104798001e0090004880de0043
:10440c00004f78001e407800e8ff07001e00900067
:10441c00104798001e409000e4ff07000080fa004f
:10442c00000006000a00fa002007980031079800e7
:10443c00420798002e019000be019000028fbe0032
:10444c00420020008e0078004e0090001cf4070003
:10445c000080fa00000006000800fa00200798000f
:10446c00310798002e019000be019000028fbe0013
:10447c00000000001111800000202000008060006e
:10448c000000e000fbff3a003e4090000000fb0003
:10449c002011880000000000111180000020200075
:1044ac00008060000000e000fbff3a002e4090000e
:1044bc000000fb002011880000000000111180009a
:1044cc0000202000008060000000e000fbff3a00ac
:1044dc001e4090000000fb0020118800000000002e
:1044ec001111800000202000008060000000e0001e
:1044fc00fbff3a001e4078000000fb0020118800f2
:10450c000080fa00000006000200fa000000eb0038
:10451c00000f78000000eb00000f78000700370058
:10452c001e00780080004000808722000080400040
:10453c008000eb00010878001e0fe800401f2000ef
:10454c009e007800808f5000f5ff34000080fa0048
:10455c00000006000200fa00000f780041428000c3
:10456c00301f2000808f50000c003c004042800027
:10457c008000400080872200008040001e087800e8
:10458c00404280000000e8004042880070428000f9
:10459c000000e800704288000c0037004828ef004b
:1045ac004042800080004000808722000080400054
:1045bc001e087800404280000000e800404288005d
:1045cc00604280000000e800604288000080fa0031
:1045dc00000006000000fa0031428000301f20006d
:1045ec00808f5000040034004628ef0050428000b9
:1045fc000000e80050428800614280005042800078
:10460c00808f50000d003a00414280003042800003
:10461c00808f500009003400304280008000400040
:10462c008087220000804000100078006cff07009b
:10463c00304280000000e800304288006142800077
:10464c005042800000805000e10f50000d003a00f5
:10465c003142800040428000808f500009003400bd
:10466c0030428000800040008087220000804000a3
:10467c00100078005aff0700304280000000e8006c
:10468c00304288000080fa00000006000000fa00aa
:10469c0040a7a90060022000303a8800203a800030
:1046ac000060a1000070a100203a8800213a80002f
:1046bc0000fe2f0000806000203a88004827ef00a1
:1046cc001200200080072000a10920003374200074
:1046dc0080497800814978008249780012002000d6
:1046ec0060042000710520002374200080497800ac
:1046fc00814978008249780000000000113a80005e
:10470c00000027008080600000002100808f500096
:10471c00faff3a0000000000113a8000000220006d
:10472c00008060000000e000fbff32000080fa0017
:10473c00000006000200fa00000f78001e0078004e
:10474c008000400020852000008040001000780090
:08475c000080fa0000000600d5
:020000040000fa
:044764000000000051
:020000040000fa
:0200000401f009
:04000000ffff0000fe
:020000040000fa
:0200000401f009
:04000400ffff0000fa
:020000040000fa
:0200000401f009
:04000800ffff0000f6
:020000040000fa
:0200000401f009
:04000c00faff0000f7
:020000040000fa
:0200000401f009
:04001000beff00002f
:020000040000fa
:0200000401f009
:040014007fff00006a
:020000040000fa
:0200000401f009
:04001800ffff0000e6
:020000040000fa
:0200000401f009
:04001c00fdff0000e4
:00000001FF
